:1000000090C00000AAC00000A8C00000A6C0000068
:10001000A4C00000A2C00000A0C000009EC000005C
:100020009CC00000A7C1000098C000008CC6000062
:1000300031C70000C8C0000090C000004EC20000E0
:100040008CC000008AC0000088C00000F6C000001C
:1000500057C100007CC1000080C0000040C4000007
:100060007CC000007AC0000078C0000076C00000AC
:1000700074C0000024034100720064007500690030
:100080006E006F0020004D006500670061002000D9
:1000900032003500360030000000320341007200AB
:1000A0006400750069006E006F0020002800770072
:1000B000770077002E00610072006400750069000F
:1000C0006E006F002E00630063002900000004032F
:1000D000090409023E00020100C0C8090400000131
:1000E0000202010005240001100424020605240672
:1000F0000001070582030800FF09040100020A004D
:1001000000000705040240000107058302400001CA
:100110001201100102000008412310000100010239
:10012000DC0111241FBECFEFD4E0DEBFCDBF11E054
:10013000A0E0B1E0EEEEF4E102C005900D92A0392E
:10014000B107D9F713E0A0E9B1E001C01D92A130D9
:10015000B107E1F797D20C94750A52CF429A81E029
:100160008093AE015898089542981092AE01589A23
:100170000895CF93DF931F92CDB7DEB780919101A1
:1001800081111DC08FB78983F8944698109285001D
:10019000109284008FEF9FEF9093890080938800E6
:1001A000B19A80E48093800080916F008260809398
:1001B0006F0081E0809391015D9889818FBF0F90DE
:1001C000DF91CF9108951F920F920FB60F921124D5
:1001D0002F933F934F935F936F937F938F939F934F
:1001E000AF93BF93EF93FF9380919101811104C06E
:1001F00080919001882341F08091550190915601A2
:10020000909322018093210180919001882319F01D
:10021000B0DF109290014798FF91EF91BF91AF919D
:100220009F918F917F916F915F914F913F912F910E
:100230000F900FBE0F901F9018951F920F920FB640
:100240000F9211242F933F938F939F93EF93FF93DC
:1002500080919401823021F0833009F046C01DC0A6
:1002600093B191708091AF0189278093AF01309154
:10027000B00127B52C5E27BD383051F08091B10117
:10028000880F892B8093B1013F5F3093B0012DC05F
:10029000811101C004C083E026C0189B09C081E021
:1002A000809392011092940180936E0016BC1DC041
:1002B00016BC81E080936E0080936B008091B20148
:1002C000E82FF0E09091B101EB56FE4F90838F5FE5
:1002D0008093B201893131F485E0809394011092CA
:1002E0006B0003C084E080939401FF91EF919F9194
:1002F0008F913F912F910F900FBE0F901F901895E7
:100300001F920F920FB60F9211248F938091940138
:10031000882319F0853059F406C010926E0081E0F0
:10032000809394010BC016BC88EC88BD07C0109266
:100330006E0081E0809394018093920181E080932C
:100340006B008F910F900FBE0F901F9018951F920A
:100350000F920FB60F9211248F9316BC80E488BDC4
:1003600084E085BB80936E008F910F900FBE0F903D
:100370001F9018951F920F920FB60F9211248F9312
:1003800016BC80919401813019F08430C1F402C010
:100390001092B201189B11C089E187BD82E085BB34
:1003A00080936E0010926B001092B1011092B00118
:1003B0001092AF01809394010AC0109294011092A0
:1003C0006B0081E085BB80936E00809392018F91DA
:1003D0000F900FBE0F901F901895CF93DF938091D1
:1003E0009401853009F076C0809195018F3039F005
:1003F000379A81E080939201109294016BC0A89586
:1004000021E030E0A7E0B1E0C4E643C0A73041F40A
:10041000EB2FF0E0EB56FE4FD081BF5FA0E002C0B3
:10042000DD0FAF5FD7FF02C0842B952B440F551F04
:100430006150710959F76BEF7FEF0E94410A985D97
:1004400096958795969587958B539C4FF901EF521A
:10045000FE4FC083F901E954FE4F1082B901660FC7
:10046000771FFB01E95EFE4F408151814E5F5F4F78
:10047000481B590B4530510510F480819181FB01D7
:10048000E95EFE4F918380832E5F3F4F2931310516
:1004900039F06CE070E041E050E080E090E0C8CFDF
:1004A0001092940180919101811101C062DE9091BE
:1004B00092018091B3018F5F8093B301811108C0D5
:1004C0004C9A911102C0479A05C01092920101C046
:1004D0009111379ADF91CF91089578941F920F92DE
:1004E0000FB60F9211242F933F938F939F93EF9307
:1004F000FF93E0911601F0E0E954FE4F80818932CC
:10050000F0F080911601F8942091880030918900D4
:10051000E0911601F0E0EE0FFF1F883018F4E55B64
:10052000FE4F02C0E95EFE4F80819181820F931FD2
:1005300090938900809388007894479825C0F89418
:100540002091880030918900E0911601F0E0EE0FD3
:10055000FF1FE95EFE4F80819181820F931F909370
:100560008900809388007894E0911601F0E0EF52C2
:10057000FE4F8081843640F0E0911601F0E0E954AE
:10058000FE4F80818F5F8083809116018F5F809303
:1005900016018A3118F0109216014D9AFF91EF91D1
:1005A0009F918F913F912F910F900FBE0F901F90B1
:1005B000189504B600FC13C004B601FC10C004B6C4
:1005C00002FE0DC014BE81E0809390018091550120
:1005D00090915601909322018093210101C014BE95
:1005E0003A9A549A559A5C9A5D9A14B885B18FEFED
:1005F00085B9509A8091AE01882311F0589801C0B6
:10060000589A82E085BD91E090936E0080938100BE
:1006100010926B00809168008160809368003E9A20
:100620003F9A479A80919301823089F088E10FB612
:10063000F89480936000109260000FBEA89580919E
:10064000600088618093600084E480936000089576
:1006500087E690E09093CD008093CC0086E0809375
:10066000CA001092C80088E18093C900539A5A9A30
:100670008AB180638AB98BB180638BB959D35F9A91
:10068000579A089596DFE4DF2FB7F89480E792E059
:100690009093F1028093F0029093F3028093F20220
:1006A0002FBF2FB7F8948BEE91E090936C0280935C
:1006B0006B0290936E0280936D022FBF7894C0E717
:1006C000D2E08C0133E0F32E9FB7F8948091F402CE
:1006D0009FBF803811F180E091E0A8D697FD1DC042
:1006E000E091F002F091F10280838091F00290910C
:1006F000F10201969093F1028093F002805F9240A4
:1007000021F4D093F102C093F0029FB7F894809146
:10071000F4028F5F8093F4029FBF8FB7F894E0904C
:100720006F028FBFB29904C080E68E1508F04AC0F0
:10073000B29B0AC0B29A8091840090918500905E2D
:1007400090938B0080938A0080916F02882301F13F
:100750005D98F092B4011CC0E0916D02F0916E02C0
:100760006191F0936E02E0936D02EB56F24021F43A
:1007700010936E0200936D029FB7F89480916F0200
:10078000815080936F029FBF80E091E0F3D5EA949F
:10079000E110E2CF8091B401882341F08091B4014F
:1007A00081508093B401811101C05D9A8091B5019F
:1007B000882341F08091B50181508093B50181116A
:1007C00001C05C9A9FB7F8948091F4029FBF882380
:1007D00009F1E091F202F091F3029191F093F302AA
:1007E000E093F202E05FF24021F4D093F302C09371
:1007F000F2022FB7F8948091F40281508093F402B2
:100800002FBF8091C80085FFFCCF9093CE005C98ED
:10081000F092B501E2DD80E091E0FAD5E1D454CF69
:1008200080E091E05AC580E091E0ECC41F93CF9343
:10083000DF93EC01EC89E150E23028F4F0E0E2577C
:10084000FE4F108101C010E08B89823009F41860DE
:100850008D89873031F0883031F0863029F412608C
:1008600003C0146001C016601092C9001092C80045
:100870001092CA002F85388949895A89211581EE3D
:1008800038074105510571F0CA01B9019695879560
:100890007795679560587B47814E9F4F04D62150CE
:1008A000310902C020E130E03093CD002093CC002C
:1008B0001093CA008F859889A989BA898115914EAC
:1008C000A105B10511F480E001C082E08093C80069
:1008D00088E98093C900DF91CF911F9108951F92FD
:1008E0000F920FB60F9211242F938F939F93EF9334
:1008F000FF938091CE009EB39430F1F4E0916B02AF
:10090000F0916C028083E0916B02F0916C02CF0158
:10091000019690936C0280936B028B56924021F467
:100920008BEE91E0928381839FB7F89480916F0260
:100930008F5F80936F029FBFFF91EF919F918F9187
:100940002F910F900FBE0F901F901895FC01858579
:1009500080FF02C05F9808955F9A0895292F33277A
:100960002230310539F02330310549F0213031058D
:1009700021F128C0EEE3F0E082ED90E027C0992756
:100980008130910561F08230910581F0892BD1F49D
:10099000EEECF0E0E491F0E08EEC90E017C0EAE9D4
:1009A000F0E0E491F0E08AE990E010C0E4E7F0E0E4
:1009B000E491F0E084E790E009C0E2E1F0E080E15A
:1009C00091E004C0E0E0F0E080E090E0DA018D9397
:1009D0009C93CF01089528E030E040E003C04F5FD2
:1009E000220F331F28173907D0F3842F8295807F79
:1009F00008958093E900EBEEF0E0808181608083D0
:100A0000EDEEF0E010826093EC0040838091EE0008
:100A1000881F8827881F08951092F40080E0809333
:100A2000E9001092F0001092E8001092ED00909111
:100A3000EB009E7F9093EB008F5F853081F70895E8
:100A40008091F90287FD05C08091E80080FF0DC00C
:100A500010C08091E80082FD04C08EB38111F9CFEF
:100A600008958091E8008B7707C08EB38111ECCF99
:100A700008958091E8008E778093E800089585E6D8
:100A80009091EC0090FF05C09091E80090FF05C0A8
:100A90001BC09091E80092FD17C09EB39923B1F05E
:100AA0009EB39530A9F09091EB0095FD13C0909105
:100AB000E10092FFE5CF9091E1009B7F9093E100F0
:100AC0008150F1F684E0089580E0089582E0089571
:100AD00083E0089581E008952091FF0230910003A2
:100AE0002617370748F06115710539F42091E800A1
:100AF0002E772093E80001C0B901FC0190E029C0E5
:100B00008091E80083FD37C08091E80082FD2DC010
:100B10008EB3882391F18EB3853089F18091E800FE
:100B200080FF17C08091F20006C091919093F10070
:100B3000615071098F5F6115710511F08830A8F35C
:100B400091E0883009F090E08091E8008E77809302
:100B5000E80061157105A1F69111D2CF06C08EB3E0
:100B6000882359F08EB3853051F08091E80082FFE0
:100B7000F6CF80E0089581E0089582E0089583E053
:100B800008952091FF02309100032617370748F09F
:100B90006115710539F42091E8002E772093E80063
:100BA00001C0B9019C0190E02CC08091E80083FD58
:100BB0003AC08091E80082FD30C08EB38823A9F14D
:100BC0008EB38530A1F18091E80080FF1AC080913A
:100BD000F20009C0F9012F5F3F4FE491E093F1006B
:100BE000615071098F5F6115710511F0883090F3C4
:100BF00091E0883009F090E08091E8008E77809352
:100C0000E8006115710589F69111CFCF06C08EB34A
:100C1000882359F08EB3853051F08091E80082FF2F
:100C2000F6CF80E0089581E0089582E0089583E0A2
:100C300008956115710529F42091E8002B77209320
:100C4000E8009C0121C08091E80083FD2BC08EB399
:100C5000882371F18EB3853039F18091E80082FFED
:100C6000F2CFF90107C08091F10081939F0161509B
:100C7000710929F09F018091F2008111F4CF8091D8
:100C8000E8008B778093E80061157105E1F68091AB
:100C9000E80080FD0BC08EB3882351F08EB3853001
:100CA000B1F702C081E0089583E0089580E00895DF
:100CB00082E0089542D044D01EBA1092F7021092FA
:100CC000F6021092F50284E089BD89B5826089BD83
:100CD00009B400FEFDCF8091D800982F9F779093A4
:100CE000D80080688093D800809163008E7F8093C5
:100CF00063008091D8008F7D8093D8008091E000C0
:100D00008E7F8093E0008091E1008E7F8093E100F0
:100D10008091E20081608093E2008091E100877F12
:100D20008093E1008091E20088608093E200089562
:100D3000C1DF81E08093F80208951092E2000895E7
:100D40001092E10008951F920F920FB60F92112496
:100D50002F933F934F935F936F937F938F939F93C3
:100D6000AF93BF93EF93FF938091E10080FF1BC08F
:100D70008091E20080FF17C08091E1008E7F809318
:100D8000E1008091E2008E7F8093E2008091E2009A
:100D900080618093E2008091D80080628093D800C7
:100DA00019BC1EBAE1D98091E10084FF29C080916D
:100DB000E20084FF25C084E089BD89B5826089BDD9
:100DC00009B400FEFDCF8091D8008F7D8093D800BC
:100DD0008091E1008F7E8093E1008091E2008F7E20
:100DE0008093E2008091E20081608093E200809134
:100DF000F702882311F084E001C081E08EBBAED9F8
:100E00008091E10083FF27C08091E20083FF23C02F
:100E10008091E100877F8093E10082E08EBB109299
:100E2000F7028091E1008E7F8093E1008091E200E3
:100E30008E7F8093E2008091E20080618093E200E7
:100E4000EBDD42E060E080E0D4DD8091F00088607E
:100E50008093F000C4D18091E10082FF0AC08091AC
:100E6000E20082FF06C08091E1008B7F8093E10069
:100E7000B6D1FF91EF91BF91AF919F918F917F91EB
:100E80006F915F914F913F912F910F900FBE0F90F7
:100E90001F9018951F920F920FB60F921124EF9288
:100EA000FF920F931F932F933F934F935F936F93F3
:100EB0007F938F939F93AF93BF93EF93FF93CF93C2
:100EC000DF931F92CDB7DEB789EEE82EF12CF70144
:100ED00080818770108200EF10E0F8019081977F89
:100EE00090837894898322D0F894F7011082F801D6
:100EF0009081986090838981F70180830F90DF91C2
:100F0000CF91FF91EF91BF91AF919F918F917F9181
:100F10006F915F914F913F912F911F910F91FF9092
:100F2000EF900F900FBE0F901F9018950F931F9387
:100F3000CF93DF93CDB7DEB7AC970FB6F894DEBF93
:100F40000FBECDBFE9EFF2E08091F100819323E085
:100F5000E130F207C9F78091F9029091FA029530D9
:100F600009F484C038F49130B1F170F0933009F095
:100F700029C131C0983009F4EDC0993009F4FCC0A2
:100F8000963009F01FC194C0803821F0823809F0F2
:100F900019C108C08091F5029091F602992389F059
:100FA00082600FC08091FD029091FE0287709927A8
:100FB0008093E9008091EB0085FB882780F91092EF
:100FC000E9009091E800977F9093E8008093F1000A
:100FD0001092F100CAC0882319F0823009F0F2C0E3
:100FE0008F7121F0823009F0DEC00BC08091FB02CE
:100FF000813009F0D8C0933009F080E08093F60288
:101000002FC08091FB0281112BC08091FD02909135
:10101000FE0287709927009709F4C5C08093E90004
:101020002091EB0020FFBFC02091FA02233021F471
:101030008091EB00806212C09091EB0090619093E0
:10104000EB0021E030E001C0220F8A95EAF72093FF
:10105000EA001092EA008091EB0088608093EB0038
:101060001092E9008091E800877F82C08111AAC0B8
:101070000091FB021091FC028091E800877F809331
:10108000E800DEDC04C08EB3882309F48CC08091B4
:10109000E80080FFF8CFC8018F779927009711F0FB
:1010A00023E001C022E02EBB80688093E3007BC078
:1010B0008058823008F086C08091FB029091FC023B
:1010C0008C3D23E0920779F583E08A838AE2898365
:1010D0003FB7F894DE01139680E09EE041E2E92FED
:1010E000F0E040935700E49180FF03C0E295EF7079
:1010F0009F5FEF702E2F205D2A3308F0295F2C931D
:1011000011961C92119712968F5F843141F73FBF61
:101110008091E800877F8093E8006AE270E0CE016A
:101120000196DADC11C0AE01455D5F4F6091FD02B2
:1011300015DC0097C1F12091E800277F2093E8009B
:10114000BC018BA59CA51DDD8091E8008B77809369
:10115000E80029C08038B1F58091E800877F80934E
:10116000E8008091F7028093F1008091E8008E778B
:101170008093E80065DC17C0811124C09091FB02C8
:10118000923088F48091E800877F8093E800909304
:10119000F70256DC8091F702882311F084E001C049
:1011A00083E08EBB3DDB8091E80083FF0DC0809122
:1011B000EB0080628093EB008091E800877F809352
:1011C000E80002C030DBEFCFAC960FB6F894DEBF7C
:1011D0000FBECDBFDF91CF911F910F91089508955C
:1011E000CF938EB3882359F0C091E900C770109255
:1011F000E9008091E80083FD99DEC093E900CF917A
:1012000008950895CF93DF93EC018091E80083FF68
:1012100061C0888190E02091FD023091FE02281784
:10122000390709F057C08091FA02813259F020F451
:10123000803209F04FC019C0823269F1833209F05F
:1012400049C038C08091F902813A09F043C08091C9
:10125000E800877F8093E80067E070E0CE010F969A
:101260003BDC8091E8008B7713C08091F9028132DA
:1012700089F58091E800877F8093E80067E070E05F
:10128000CE010F96D6DCCE01D1DA8091E8008E77C0
:101290008093E8001FC08091F9028132D9F48091D7
:1012A000E800877F8093E8008091FB028D87CE0164
:1012B0004DDB0DC08091F902813261F48091E8002C
:1012C000877F8093E8006091FB02CE019ADFDF9177
:1012D000CF91B6CBDF91CF9108950F931F93CF930A
:1012E000DF93EC010D96FC0189E0DF011D928A95E8
:1012F000E9F72A813B818C81882311F014E001C039
:1013000010E00981C90167DB412F482B426061E889
:10131000802F6FDB882341F12E813F8188858823D0
:1013200011F014E001C010E00D81C90154DB412F20
:10133000482B426060E8802F5CDB8823A9F02A8577
:101340003B858C85882311F014E001C010E0C9852D
:10135000C90141DB412F482B426061EC8C2FDF91AA
:10136000CF911F910F9145CB80E0DF91CF911F91DD
:101370000F910895CF93C62F2EB32430E9F4FC01CA
:101380004785508961897289452B462B472BA1F0EF
:1013900081818093E9008091E80085FF04C0C093BB
:1013A000F10080E00AC08091E8008E778093E80029
:1013B00066DB8823A1F301C082E0CF9108952EB3AC
:1013C000243021F5FC014785508961897289452BBC
:1013D000462B472BD9F081818093E9008091F20060
:1013E000811102C080E008959091E8008091E800AA
:1013F0008E778093E80095FDF5CF41DB811107C022
:101400009091E8009E779093E800089582E0089517
:101410002EB3243051F4FC014785508961897289CB
:10142000452B462B472B09F0CACF08952EB3243005
:1014300019F02FEF3FEF23C0FC01478550896189E8
:101440007289452B462B472BA1F385818093E900B8
:101450008091E80082FFEDCF8091F200882321F097
:101460002091F10030E002C02FEF3FEF8091F200B9
:10147000811105C08091E8008B778093E800C90155
:1014800008955527002480FF02C0060E571F660FDF
:10149000771F6115710521F096958795009799F74B
:1014A000952F802D0895A1E21A2EAA1BBB1BFD01CA
:1014B0000DC0AA1FBB1FEE1FFF1FA217B307E40733
:1014C000F50720F0A21BB30BE40BF50B661F771F8B
:1014D000881F991F1A9469F760957095809590956B
:0E14E0009B01AC01BD01CF010895F894FFCF30
:1014EE00000340000004400000020800000000005D
:1014FE00000000000000192003980820039808201F
:10150E000378052003980820030609200398082075
:10151E0003980820039808200398082003980820B1
:10152E0003980820039808200328232003980820F6
:10153E000398082003E803200398082003060920D7
:10154E000398082003980820039808200398082081
:10155E0003980820039808200398082003282341A5
:10156E0072647550504D76322E332E313700302046
:00000001FF
