:100000000C94462C0C94772C0C94772C0C94772C15
:100010000C94772C0C94772C0C94772C0C94F4E79C
:100020000C94772C0C94772C0C94772C0C94772CC4
:100030000C94772C0C94772C0C94772C0C94CFFA8E
:100040000C94772C0C94772C0C94772C0C94772CA4
:100050000C94772C0C94772C0C94772C0C94772C94
:100060000C94772C0C9499E80C94C8E80C94772C99
:100070000C94772C0C94772C0C94772C0C94772C74
:100080000C94772C0C94772C0C94772C0C94772C64
:100090000C9403E90C9432E90C94772C0C94D0EC7A
:1000A0000C94772C0C94FCFA0C94772C0C94772CF1
:1000B0000C94772C0C94772C0C9429FB0C94772CB3
:1000C0000C94772C0C94772C0C9424F30C946DE9FD
:1000D0000C949CE90C94772C0C94772C0C94772C32
:1000E0000C94772CEB2FF02FF52FFA2FFF2F0430E5
:1000F00009300E30133018301D3022302D302730AB
:10010000AF6F5C6F976F656F796F976FAF6F976F1A
:10011000AF6F9C6F5F707B706E719F71E9713A7207
:10012000477283720C734C747076A876B1769076B1
:100130009976BA760B77E776DE76D576F076F9762D
:100140000277C376CC764E7722771477307738777C
:100150004E7740774E774877497C387C487D497C9C
:10016000497C487D487D547CEA92E292F292F79273
:1001700018930A932493039311931F932B93329311
:10018000C3933F93EAA4B9A74EA503A51CA55FA5F9
:1001900092A5B9A780A64BA6B9A7E7A5B9A781A53F
:1001A000B9A7B9A79AA6B3A6CCA6B9A735A500A6A4
:1001B00032A6B9A75EA670A5B9A719A6B9A7E5A6E4
:1001C000F6A607A7B9A7B4A5C5A5D6A5A3A520A738
:1001D00050A76FA669A77AA787A8A5A8BAA83AAA20
:1001E000FBA817A9F0A804A93AAA3AAA3AAA3AAAD7
:1001F0003AAA3AAA3AAA3AAA3AAA3AAA3AAA3AAADF
:100200003AAA3AAA3AAA3AAA2AA93AAA3BA951A9C9
:1002100056A93EA95DAD6DAD76AD80ADB9AEC9ADA7
:10022000B9AE5EAE64AE6DAE78AE73AD80AEB9AE53
:1002300092AE9BAEAAAE70B681B685B68CB690B6BD
:1002400010C594B610C510C510C598B69CB6A0B61A
:10025000A3EFA3EFA8EFA8EFA8EFADEFADEFADEFE1
:10026000BFEFB2EFB2EFCCEFD0EFD6EFDAEFDEEFC9
:10027000E4EFE8EFECEFFBEFF2EFF6EF05F009F05B
:100280000FF013F017F01DF021F025F034F02BF0F3
:100290002FF04DF052F057F05CF061F066F06BF02B
:1002A00070F07EF075F07AF0ACF0B1F0B6F0BBF023
:1002B000C0F0C5F0CAF0CFF0DEF0D4F0D9F0CF2B0B
:1002C000CF2BBB292F2A2729F128BD293B29452AD5
:1002D000392B472A932AA32B712B8D2BE32ADD2957
:1002E000372AA92BE52BFB285D2A8D29F72AA72978
:1002F000F928392C4529CB2A152C052B072C3F2909
:10030000E12ABB2BC92B412A1B2CD32BFF29D32B32
:10031000D32B0329A12BD32BD32B832A892AD7298B
:10032000D32BD32BD32BD32BD32BD32BD32BD32BDD
:10033000D32BD32BD32BFB2BD32BD32BD32BD32BA5
:10034000D32BD32BD32B23299D2BD32B1D2B972B97
:10035000D32B6D29E328D32BD32BD32BD32B072BD4
:10036000EB28E72BA32A192C47295F29DB29232C0B
:10037000DB2BAF2BDF2983299329272B7D29952977
:10038000352B472BBF2AE5293F2A972A152B052C09
:100390005F2A6729B52B092B3D2B9F2B8D2AE92935
:1003A000B92BA3296B292F2CC52BC529FB29C529BE
:1003B000FB29C529FB29C5298B2B8B2B8B2B8B2B41
:1003C0008B2B8B2B8B2B8B2B8B2B012B732B1F2C8A
:1003D000732B1F2C732B1F2C732B1F2C732B1F2C79
:1003E000DD2ADD2ADD2A912B912BDD2ADD2ADD2A6B
:1003F000912B912B252A252A252A37293729252A89
:10040000252A252A372937294D2B0D2C4D2B0D2C2C
:100410004D2B0D2C4D2B0D2C4D2BA92ABF2B572AC4
:100420009729BF2B572A9729BF2B572A9729192974
:10043000AB29AB2919291929AB29AB291929192964
:1004400019291929036EDB363D9A9999993DABAA72
:10045000AA2A3E000000803F084AD73B3BCE016EEF
:1004600084BCBFFDC12F3D6C74319ABD56833DDA0B
:100470003D00C77F11BED9E4BB4C3E916BAAAABE1A
:10048000000000803F072C7AA5BA6CC590DA3B9338
:1004900065FC8BBC53F810FD3C5692834DBD879D87
:1004A0003AB63DCBC9BF5BBE73DA0FC93F05A84C56
:1004B000CDB2D44EB93836A9020C50B9918688080D
:1004C0003CA6AAAA2ABE000000803F08000000BE89
:1004D000922449123EABAAAA2ABECDCCCC4C3E00F7
:1004E000000080BEABAAAAAA3E00000000BF000028
:1004F00000803F0000000000084178D3BB4387D153
:10050000133D190E3CC3BD4282AD2B3E68EC827692
:10051000BED98FE1A93E4C80EFFFBE01C4FF7F3FF3
:1005200000000000000664EC1B3C04BC163E3BE5EA
:10053000B93CC93C37C29E5A3D660498083EEA69F8
:10054000AAAA3E000000803F0253595349445F531A
:10055000575F4D52455600000000003F0700000065
:10056000000153595349445F53575F545950450054
:100570000000000141070000204102535953494443
:100580005F544849534D4156000000007042070037
:1005900000803F0253595349445F4D59474353002C
:1005A000000000000071440700007F4301534552E2
:1005B00049414C315F424155440000000000724601
:1005C00007000064420154454C454D5F44454C4191
:1005D00059000000000000734707000000000252AD
:1005E000544C5F414C54000000000000000000002B
:1005F000A048070080BB4401534F4E41525F454E17
:1006000041424C450000000000944A0700000000F1
:1006100001534F4E41525F545950450000000000B5
:1006200000009A4B070000000004534F4E41525FF8
:100630004741494E000000000000001E4C07CDCC91
:100640004C3F0146535F424154545F454E41424C3A
:1006500045000000C15007000000000446535F42FF
:100660004154545F564F4C54414745000097510741
:10067000000028410446535F424154545F4D4148B5
:10068000000000000000255507000000000146534F
:100690005F4750535F454E41424C4500000000C348
:1006A00059070000803F0146535F4743535F454E63
:1006B00041424C4500000000C65A070000000002FD
:1006C0004750535F48444F505F474F4F440000002E
:1006D00000235B0700004843014D41475F454E4101
:1006E000424C4500000000000000925D07000080C1
:1006F0003F01464C4F575F454E41424C450000007C
:10070000000000965E07000000000153555045525E
:100710005F53494D504C4500000000009B5F0700AF
:100720000000000252544C5F414C545F46494E4118
:100730004C00000000A3600700000000015253536A
:10074000495F50494E0000000000000000001862A0
:1007500007000080BF04525353495F52414E474542
:10076000000000000000002763070000A0400157C0
:10077000505F5941575F4245484156494F5200002A
:100780001A6707000000400157505F544F54414C16
:10079000000000000000000000D36F070000000010
:1007A0000157505F494E44455800000000000000CA
:1007B0000000D470070000000002434952434C453A
:1007C0005F52414449555300000000D771070000B3
:1007D000204104434952434C455F52415445000077
:1007E000000000001D73070000A0410352544C5F3D
:1007F0004C4F49545F54494D4500000000A2770713
:1008000000409C45024C414E445F535045454400D6
:10081000000000000000D97B070000484202504958
:100820004C4F545F56454C5A5F4D41580000001CD8
:100830007D0700007A43025448525F4D494E000044
:100840000000000000000000B47F07000002430227
:100850005448525F4D415800000000000000000065
:1008600000B5810700007A440146535F5448525F47
:10087000454E41424C4500000000B6830700000091
:10088000000246535F5448525F56414C55450000A4
:10089000000000B8840700C07344025452494D5F01
:1008A0005448524F54544C4500000000B98607008C
:1008B00000E143025448525F4D49440000000000EB
:1008C0000000000000C288070000FA4301464C54B3
:1008D0004D4F444531000000000000000000C88A70
:1008E000070000000001464C544D4F4445320000C3
:1008F00000000000000000C98B0700000000014656
:100900004C544D4F444533000000000000000000EF
:10091000CA8C070000000001464C544D4F4445343A
:10092000000000000000000000CB8D070000000068
:1009300001464C544D4F4445350000000000000076
:100940000000CC8E070000000001464C544D4F447F
:100950004536000000000000000000CD8F070000B9
:1009600000000153494D504C4500000000000000BC
:1009700000000000CE900700000000024C4F475FCF
:100980004249544D41534B000000000000149107B0
:1009900000805F4401455343000000000000000058
:1009A000000000000000BA93070000000001545549
:1009B0004E4500000000000000000000000000BBE9
:1009C0009407000000000254554E455F4C4F5700FD
:1009D0000000000000000000BD97070000000002BA
:1009E00054554E455F48494748000000000000004C
:1009F00000BC950700007A44014652414D45000075
:100A00000000000000000000000095990700008031
:100A10003F014348375F4F50540000000000000082
:100A2000000000989A0700000000014348385F4F1B
:100A30005054000000000000000000001F9B070051
:100A40000000000141524D494E475F434845434B2A
:100A50000000000000209C070000803F02414E473C
:100A60004C455F4D41580000000000000000226826
:100A70000700A08C4503414E474C455F5241544509
:100A80005F4D4158000000266A0700A08C460152C5
:100A9000435F4645454C5F52500000000000000097
:100AA000286E070000C842085243315F0000000072
:100AB000000000000000000000AA9D07C7410000E0
:100AC000085243325F0000000000000000000000F8
:100AD0000000ABBA07C7410000085243335F000073
:100AE0000000000000000000000000ACD707C74174
:100AF0000000085243345F000000000000000000C6
:100B000000000000ADF407C7410000085243355F04
:100B100000000000000000000000000000AE11080E
:100B20005D420000085243365F00000000000000F4
:100B3000000000000000AF2F085D42000008524393
:100B4000375F00000000000000000000000000B05F
:100B50004D085D420000085243385F00000000006D
:100B60000000000000000000B16B085D42000008BA
:100B7000524331305F000000000000000000000020
:100B800000B289085D42000008524331315F000025
:100B900000000000000000000000B3A7085D420054
:100BA000000252435F5350454544000000000000DE
:100BB000000000C0C5080000F543044143524F5FE8
:100BC00052505F500000000000000000DDC7080028
:100BD000009040044143524F5F5941575F5000001D
:100BE0000000000000F4CB08000090400441435294
:100BF0004F5F42414C5F524F4C4C00000000F2CF1F
:100C0000080000803F044143524F5F42414C5F5017
:100C100049544348000000F3D3080000803F0141DD
:100C200043524F5F545241494E455200000000006C
:100C30001BD7080000004008524154455F524C4CFD
:100C40005F0000000000000000DFD8084A410000FB
:100C500008524154455F5049545F000000000000B5
:100C60000000E0F2084A41000008524154455F5933
:100C700041575F0000000000000000E10C094A41FC
:100C80000000084C4F495445525F4C41545F0000EE
:100C900000000000E726094A410000084C4F495473
:100CA00045525F4C4F4E5F000000000000E84009D5
:100CB0004A410000085448525F524154455F0000C9
:100CC000000000000000EC5A094A410000085448A6
:100CD000525F414343454C5F00000000000000F1BB
:100CE00074094A410000084F465F524C4C5F0000B7
:100CF0000000000000000000ED8E094A41000008DD
:100D00004F465F5049545F000000000000000000A3
:100D100000EEA8094A410000085354425F524C4C6F
:100D20005F000000000000000000E2DE09E6400075
:100D300000085354425F5049545F00000000000017
:100D4000000000E3EC09E6400000085354425F59FC
:100D500041575F000000000000000000E4FA09E6CF
:100D6000400000085448525F414C545F00000000AE
:100D70000000000000EB080AE640000008484C4470
:100D80005F4C41545F000000000000000000E5C21D
:100D900009E640000008484C445F4C4F4E5F00009D
:100DA00000000000000000E6D009E6400000084313
:100DB000414D5F0000000000000000000000000046
:100DC000A5B00DCD4300000852454C41595F0000CD
:100DD0000000000000000000000D4D135043000013
:100DE00008434F4D504153535F0000000000000086
:100DF0000000936B115B3B000008494E535F0000FD
:100E0000000000000000000000000003AA0BE53C09
:100E1000000008494E41565F00000000000000003D
:100E20000000000064260C254600000857504E4183
:100E3000565F0000000000000000000000650A0F7F
:100E400070460000085352305F00000000000000B0
:100E50000000000000006ECC0D890F000008535206
:100E6000315F000000000000000000000000006F83
:100E7000690E890F000008414852535F00000000CE
:100E800000000000000000009F180AD33F00000887
:100E90004D4E545F00000000000000000000000004
:100EA00000A6450D6344000008424154545F000011
:100EB0000000000000000000000024B71095500062
:100EC00000084252445F00000000000000000000E3
:100ED0000000000F51135D51000008474E445F00B1
:100EE0000000000000000000000000000BE210F80D
:100EF0003700000853434845445F000000000000ED
:100F000000000000000C2A079E4F00000846454ED6
:100F100043455F000000000000000000000045861F
:100F200006EF4E000008475053474C495443485F72
:100F30000000000000000046541241340000084D3B
:100F40004F545F000000000000000000000000009F
:100F50005AEB0FA84200000852434D41505F000079
:100F6000000000000000000000C7521318500000ED
:100F70000000000000000000000000000000000071
:100F800000000000000000000002005241575F53C3
:100F9000454E530000000000000000006600000005
:100FA000000002014558545F5354415400000000B2
:100FB0000000000000680000000000020252435FD1
:100FC0004348414E000000000000000000006A009D
:100FD0000000000002035241575F4354524C00008E
:100FE000000000000000006C00000000000204503F
:100FF0004F534954494F4E000000000000000000CC
:101000006E000000000002054558545241310000B6
:10101000000000000000000000700000000000025E
:101020000645585452413200000000000000000004
:10103000000072000000000002074558545241337E
:10104000000000000000000000000074000000002C
:10105000000208504152414D5300000000000000C2
:101060000000000076000000000000FF000000000B
:101070000000000000000000000000000000000070
:10108000000000BF6B0200C201F4AB0200840396B3
:10109000480100900150A00A00D002BDAE0A003203
:1010A0000045B50A000A005F400A008C0066370A56
:1010B00000E803CEA70A00200348A421005A00F745
:1010C000380200A4017A2C0200FA00ED3F0200640D
:1010D0000028B46400A4014F7A0A0014007BC60201
:1010E0000026021A786400960017780200D002F9F0
:1010F000780200B603E53F0200C201CD3F0A002C92
:101100000186480200DC00C26DE803C800B7430A4C
:10111000003200504552463A2025752F257520256E
:101120006C750A0050726541726D3A205243206E10
:101130006F742063616C69627261746564005072DF
:101140006541726D3A204261726F206E6F74206843
:1011500065616C7468790050726541726D3A204126
:101160006C7420646973706172697479005072657F
:1011700041726D3A20436F6D70617373206E6F74AE
:10118000206865616C7468790050726541726D3ACF
:1011900020436F6D70617373206E6F742063616C98
:1011A000696272617465640050726541726D3A20C3
:1011B000436F6D70617373206F666673657473201F
:1011C000746F6F20686967680050726541726D3A8C
:1011D00020436865636B206D6167206669656C6498
:1011E0000050726541726D3A20494E53206E6F7403
:1011F0002063616C6962726174656400507265415C
:10120000726D3A20494E53206E6F74206865616C90
:101210007468790050726541726D3A204368656365
:101220006B20426F61726420566F6C746167650059
:1012300050726541726D3A20436837264368382002
:101240004F70742063616E6E6F74206265207361ED
:101250006D650050726541726D3A20436865636B3D
:101260002046535F5448525F56414C5545005072DA
:101270006541726D3A20436865636B20414E474C6F
:10128000455F4D41580050726541726D3A204143AF
:10129000524F5F42414C5F524F4C4C2F5049544388
:1012A000480050726541726D3A2042616420475097
:1012B0005320506F730050726541726D3A20486937
:1012C0006768204750532048444F5000526561637F
:1012D00068656420436F6D6D616E6420232569002D
:1012E00041726475436F707465722056332E312ECF
:1012F000320047524F554E442053544152540049F6
:101300004E530A002D00475F6F66663A2025342E43
:1013100032662C2025342E32662C2025342E32665F
:101320000A00415F6F66663A2025342E32662C2013
:1013300025342E32662C2025342E32660A415F7306
:1013400063616C653A2025342E32662C2025342EBC
:1013500032662C2025342E32660A0043616C6962A5
:10136000726174696E67206261726F6D6574657217
:10137000006261726F6D657465722063616C696291
:10138000726174696F6E20636F6D706C6574650057
:1013900041726D3A20416C742064697370617269A6
:1013A00074790041726D3A205468722062656C6FE6
:1013B000772046530041726D3A204C65616E696E2C
:1013C000670041726D3A20536166657479205377E6
:1013D00069746368005472696D2073617665640096
:1013E0004C6F77204261747465727921004C6F7381
:1013F000742047505321000A0A496E6974204172D3
:101400006475436F707465722056332E312E320A24
:101410000A467265652052414D3A2025750A0080C2
:1014200059464D54000042426E4E5A0000000000E2
:10143000000000000000547970652C4C656E6774E4
:10144000682C4E616D652C466F726D6174000000F2
:10145000000000000000000000000000000000008C
:10146000000000000000000000000000000000007C
:1014700000000000000081175041524D004E6600F0
:10148000000000000000000000000000004E616D40
:10149000652C56616C7565000000000000000000BE
:1014A000000000000000000000000000000000003C
:1014B000000000000000000000000000000000002C
:1014C00000000000000000000000000000822D4726
:1014D0005053000042494842634C4C65654565667F
:1014E000490000005374617475732C54696D654D27
:1014F000532C5765656B2C4E536174732C48446FA5
:10150000702C4C61742C4C6E672C52656C416C7461
:101510002C416C742C5370642C474372732C565AB4
:101520002C540000831F494D5500004966666666CD
:10153000666600000000000000000054696D654D03
:10154000532C477972582C477972592C4779725A23
:101550002C416363582C416363592C4163635A00E7
:10156000000000000000000000000000000000007B
:101570000000000000000000000000871F494D55DA
:10158000320049666666666666000000000000007C
:10159000000054696D654D532C477972582C47797A
:1015A00072592C4779725A2C416363582C416363FA
:1015B000592C4163635A0000000000000000000045
:1015C000000000000000000000000000000000001B
:1015D000000084434D534700005A00000000000003
:1015E0000000000000000000004D65737361676536
:1015F00000000000000000000000000000000000EB
:1016000000000000000000000000000000000000DA
:1016100000000000000000000000000000000000CA
:1016200000000000000000000085175243494E00F2
:101630004968686868686868680000000000000021
:1016400054696D654D532C4368616E312C4368615C
:101650006E322C4368616E332C4368616E342C43C8
:1016600068616E352C4368616E362C4368616E3755
:101670002C4368616E38000000000000000000008C
:10168000861752434F5500496868686868686868FB
:101690000000000000000054696D654D532C436844
:1016A000616E312C4368616E322C4368616E332C5D
:1016B0004368616E342C4368616E352C4368616EFB
:1016C000362C4368616E372C4368616E3800000029
:1016D0000000000000000088114241524F0049669E
:1016E0006663000000000000000000000000546974
:1016F0006D654D532C416C742C50726573732C5472
:10170000656D700000000000000000000000000097
:1017100000000000000000000000000000000000C9
:101720000000000000000000000000000000191987
:101730004154554E004242666666666600000000EF
:101740000000000000417869732C54756E65537475
:1017500065702C526174654D696E2C526174654DD3
:1017600061782C52504761696E2C52444761696E12
:101770002C53504761696E0000000000000000001B
:1017800000000000001A094154444500636600004F
:10179000000000000000000000000000416E676CC7
:1017A000652C52617465000000000000000000001C
:1017B0000000000000000000000000000000000029
:1017C0000000000000000000000000000000000019
:1017D0000000000000000000000000000917435551
:1017E00052520049684968686866000000000000BD
:1017F00000000054696D654D532C5468724F757428
:101800002C546872496E742C566F6C742C4375722C
:10181000722C5663632C43757272546F740000000F
:1018200000000000000000000000000000000000B8
:101830000000000C144F46000000686842636365B6
:101840006500000000000000000044782C44792C62
:10185000535175616C2C582C592C526F6C6C2C5058
:1018600069746368000000000000000000000000D0
:101870000000000000000000000000000000000068
:1018800000000000000000000000052F4E54554EDF
:101890000049666666666666666666660000000003
:1018A0000054696D654D532C44506F73582C44504F
:1018B0006F73592C506F73582C506F73592C4456BA
:1018C000656C582C4456656C592C56656C582C56D2
:1018D000656C592C44416363582C4441636359003F
:1018E0000004214354554E00496868686666656384
:1018F000636868000000000054696D654D532C5406
:101900006872496E2C416E674273742C5468724F32
:1019100075742C44416C742C416C742C426172417E
:101920006C742C4453416C742C53416C742C4443A0
:1019300052742C43527400000F194D414700004966
:10194000686868686868686868000000000000549B
:10195000696D654D532C4D6167582C4D6167592C4D
:101960004D61675A2C4F6673582C4F6673592C4F34
:1019700066735A2C4D4F6673582C4D4F6673592C15
:101980004D4F66735A000000000000000000001B6D
:10199000194D414732004968686868686868686836
:1019A00000000000000054696D654D532C4D6167C7
:1019B000582C4D6167592C4D61675A2C4F667358EE
:1019C0002C4F6673592C4F66735A2C4D4F667358C3
:1019D0002C4D4F6673592C4D4F66735A0000000012
:1019E0000000000000000613504D00000042424875
:1019F0004849684248420000000000000052656EFD
:101A0000436E742C52656E426C772C4E4C6F6E2C6C
:101A10004E4C6F6F702C4D6178542C504D542C49A6
:101A200032434572722C494E534572722C494E41D5
:101A300056457272000000000000000000081443C8
:101A40004D4400004242424242654C4C00000000BE
:101A50000000000043546F742C434E756D2C4349B5
:101A6000642C434F70742C50726D312C416C742C6B
:101A70004C61742C4C6E67000000000000000000F8
:101A80000000000000000000000000000000000056
:101A90000000000001134154540000496363636374
:101AA000434300000000000000000054696D654DD4
:101AB000532C446573526F6C6C2C526F6C6C2C44BD
:101AC000657350697463682C50697463682C44654D
:101AD000735961772C596177000000000000000005
:101AE000000000000000000000000003064D4F440D
:101AF00045004D68000000000000000000000000EC
:101B000000004D6F64652C546872437273000000CE
:101B100000000000000000000000000000000000C5
:101B200000000000000000000000000000000000B5
:101B300000000000000000000000000000000000A5
:101B400000000A035354525400000000000000003B
:101B50000000000000000000000000000000000085
:101B60000000000000000000000000000000000075
:101B70000000000000000000000000000000000065
:101B80000000000000000000000000000000000055
:101B90000000000000000000000D04455600000099
:101BA00042000000000000000000000000000000F3
:101BB0004964000000000000000000000000000078
:101BC0000000000000000000000000000000000015
:101BD0000000000000000000000000000000000005
:101BE00000000000000000000000000000000000F5
:101BF0001406443136000042680000000000000076
:101C00000000000000000049642C56616C756500FE
:101C100000000000000000000000000000000000C4
:101C200000000000000000000000000000000000B4
:101C300000000000000000000000000000000000A4
:101C400000000000000000150644553136004248EF
:101C500000000000000000000000000000004964D7
:101C60002C56616C7565000000000000000000004B
:101C70000000000000000000000000000000000064
:101C80000000000000000000000000000000000054
:101C90000000000000000000000000000000160826
:101CA00044333200004269000000000000000000E0
:101CB000000000000049642C56616C75650000004E
:101CC0000000000000000000000000000000000014
:101CD0000000000000000000000000000000000004
:101CE00000000000000000000000000000000000F4
:101CF000000000000017084455333200424900003C
:101D000000000000000000000000000049642C56A4
:101D1000616C75650000000000000000000000001C
:101D200000000000000000000000000000000000B3
:101D300000000000000000000000000000000000A3
:101D400000000000000000000000000018084446E9
:101D50004C5400426600000000000000000000003B
:101D600000000049642C56616C756500000000009D
:101D70000000000000000000000000000000000063
:101D80000000000000000000000000000000000053
:101D90000000000000000000000000000000000043
:101DA000000000121B43414D000049484C4C656344
:101DB0006343000000000000000047505354696D69
:101DC000652C4750535765656B2C4C61742C4C6ED9
:101DD000672C416C742C526F6C6C2C506974636866
:101DE0002C59617700000000000000000000000096
:101DF00000000000000000000000130545525200E2
:101E0000004242000000000000000000000000004E
:101E1000005375627379732C45436F64650000004D
:101E200000000000000000000000000000000000B2
:101E300000000000000000000000000000000000A2
:101E40000000000000000000000000000000000092
:101E5000004E6F2064617461666C61736820696E06
:101E60007365727465640045524153494E47204C76
:101E70004F4753000A507265737320454E544552C4
:101E800020332074696D657320746F2073746172E0
:101E90007420696E74657261637469766520736518
:101EA0007475700A000A526561647920746F204667
:101EB0004C592000496E697469616C6973696E6779
:101EC0002041504D2E2E2E004657205665723A2046
:101ED00025640A004669726D7761726520636861E6
:101EE0006E67653A2065726173696E67204545507B
:101EF000524F4D2E2E2E0A00646F6E652E008D00FF
:101F00000100424154545F4D4F4E49544F5200001E
:101F1000000000A8000100424154545F564F4C5449
:101F20005F50494E00000000A90001004241545496
:101F30005F435552525F50494E000000008E00042E
:101F400000424154545F564F4C545F4D554C540021
:101F500000008F000400424154545F414D505F50D7
:101F60004552564F4C540091000300424154545F77
:101F70004341504143495459000000006C6F616473
:101F80005F616C6C20746F6F6B20256C7575730AC4
:101F90000045726173696E67206C6F67730A004C4D
:101FA0006F6720657261736520636F6D706C657417
:101FB000650A00456E746572696E6720455343205B
:101FC00043616C6962726174696F6E3A20706C650E
:101FD00061736520726573746172742041504D2E77
:101FE0000A004553432043616C6962726174696FF2
:101FF0006E206163746976653A2070617373696EEF
:1020000067207468726F74746C65207468726F7581
:10201000676820746F20455343732E0A00434F4D69
:102020005041535320494E4954204552524F52007B
:102030004661696C656420746F20496E6974204F35
:102040007074466C6F770A004175746F54756E65D5
:102050003A2053756363657373004175746F5475EB
:102060006E653A204661696C6564004175746F5411
:10207000756E653A205374617274656400636F6DA8
:102080006D616E642072656365697665643A2000EF
:1020900041726475436F707465722056332E312E11
:1020A0003200556E6B6E6F776E20706172616D6578
:1020B00074657220696E64657820256400556E6BC6
:1020C0006E6F776E20706172616D65746572202528
:1020D0002E31367300666C6967687420706C616EAF
:1020E000207570646174652072656A6563746564E7
:1020F00000666C6967687420706C616E207265633D
:1021000065697665640043726173683A2044697357
:1021100061726D696E67004F7074466C6F770A006C
:10212000656E006469730061626C65640A004C6FDF
:10213000670064756D700000000000000000000082
:1021400050396572617365000000000000000000F6
:10215000477A656E61626C65000000000000000057
:10216000CD4C64697361626C650000000000000082
:10217000CD4C736574757000616363656C0000001D
:10218000000000000000EE5C636F6D70617373000F
:102190000000000000001B5A636F6D706173736D67
:1021A0006F7400000000AC9C6572617365000000F4
:1021B0000000000000002D2F6D6F646573000000AB
:1021C000000000000000129B6F7074666C6F770057
:1021D000000000000000C774726164696F000000B5
:1021E0000000000000009E9872616E6765000000AC
:1021F000000000000000374C726573657400000039
:1022000000000000000056417365740000000000EB
:102210000000000000008C4D73686F770000000024
:102220000000000000000475736F6E617200000012
:10223000000000000000B24B41726475436F70747F
:1022400065722056332E312E32006C6F677300009A
:1022500000000000000000006838736574757000AD
:1022600000000000000000006E3874657374000008
:10227000000000000000000062387265626F6F7439
:102280000000000000000000AE2F68656C700000C8
:102290000000000000000000972F74657374006256
:1022A00061726F00000000000000000000B7796359
:1022B0006F6D7061737300000000000000545B6775
:1022C0007073000000000000000000000006356987
:1022D0006E730000000000000000000000785A6CDF
:1022E0006F6767696E6700000000000000EF346DE3
:1022F0006F746F7273000000000000000049986D59
:102300006F746F7273796E630000000000BA966F8D
:102310007074666C6F7700000000000000844270EB
:10232000776D00000000000000000000009D957225
:102330006164696F000000000000000000349572C5
:10234000656C6179000000000000000000453173F9
:102350006F6E61720000000000000000001E42531A
:102360006F6E61722064697361626C65640A005308
:102370006F6E61723A20256420636D0A00486974AB
:1023800020456E74657220746F20657869742E0A1A
:102390000A0052656C6179206F6E0A0052656C61AB
:1023A00079206F66660A00494E2020313A20256464
:1023B00009323A20256409333A20256409343A2049
:1023C000256409353A20256409363A202564093701
:1023D0003A2025640A00494E3A20313A2025640902
:1023E000323A20256409333A20256409343A2025FD
:1023F0006409353A20256409363A20256409373ABC
:1024000020256409383A2025640A004F7074466C10
:102410006F773A20006D616E2069643A2025640967
:102420000064783A2564092064793A2564092073A8
:102430007175616C3A25640A00726164696F206E7F
:102440006F742063616C696272617465640A005420
:102450006869732073656E64732073756464656E58
:10246000206F75747075747320746F2074686520A4
:102470006D6F746F7273206261736564206F6E207C
:102480007468652070696C6F742773207468726F4C
:1024900074746C6520746F207465737420666F7239
:1024A00020455343206C6F7373206F662073796EE1
:1024B000632E204D6F746F72732077696C6C20737C
:1024C00070696E20736F206D6F756E742070726FFF
:1024D00070732075702D736964652D646F776E213C
:1024E0000A202020486F6C64207468726F74746CCA
:1024F00065206C6F772C207468656E20726169733B
:1025000065207468726F74746C6520737469636B92
:1025100020746F2064657369726564206C657665EC
:102520006C20616E6420707265737320412E2020D0
:102530004D6F746F72732077696C6C207370696E65
:1025400020666F7220322073656320616E64207490
:1025500068656E2072657475726E20746F206C6F82
:10256000772E0A507265737320616E79206B6579DE
:1025700020746F20657869742E0A007468726F7415
:10258000746C65206E6F74207A65726F0A000A544D
:1025900068723A2564000A5370696E206D6F746F1B
:1025A00072732061743A2564000A4D6F746F727300
:1025B0002073746F70706564000A546573742063CF
:1025C0006F6D706C6574650A00436F6E6E65637441
:1025D000206261747465727920666F722074686914
:1025E0007320746573742E0A4D6F746F7273207745
:1025F000696C6C207370696E206279206672616DFF
:102600006520706F736974696F6E206F7264657294
:102610002E0A46726F6E74202826207269676874CD
:10262000206F662063656E7465726C696E65292023
:102630006D6F746F722066697273742C2074686594
:102640006E20696E20636C6F636B77697365206FB2
:10265000726465722061726F756E64206672616D5E
:10266000652E0A52656D656D62657220746F206417
:102670006973636F6E6E65637420626174746572F2
:10268000792061667465722074686973207465735B
:10269000742E0A416E79206B657920746F206578FD
:1026A00069742E0A0054657374696E6720646174DE
:1026B00061666C617368206C6F6767696E6700495B
:1026C0004E530A002E2E2E646F6E650A006120257F
:1026D000372E34662025372E34662025372E346673
:1026E00020672025372E34662025372E3466202596
:1026F000372E346620742025372E3466200A004C8D
:1027000061743A20002C204C6F6E20002C20416C0C
:10271000743A20256C646D2C2023736174733A2005
:1027200025640A002E00436F6D706173733A2000B8
:10273000436F6D7061737320696E697469616C6950
:10274000736174696F6E206661696C65642100480D
:10275000656164696E673A20256C642C2058595A6B
:102760003A20252E30662C20252E30662C20252E52
:1027700030662C0958595A6F66663A2025362E3233
:10278000662C2025362E32662C2025362E32660AFF
:1027900000636F6D70617373206E6F742068656184
:1027A0006C74687900736176696E67206F66667312
:1027B00065747300436F6D706173730A004D6167D8
:1027C000204465633A2025342E34660A004D616743
:1027D000206F66663A2025342E34662C2025342E50
:1027E00034662C2025342E34660A004D6F746F72C7
:1027F00020436F6D703A20004F66660A005468727D
:102800006F74746C650043757272656E74000A4370
:102810006F6D70205665633A2025342E32662C2069
:1028200025342E32662C2025342E32660A006E6F37
:1028300074206865616C74687900416C743A202575
:10284000302E32666D2C205261773A202566205456
:10285000656D70657261747572653A20252E3166FA
:102860000A006C6F677320656E61626C65643A2064
:10287000006E6F6E65002041545449545544455FC5
:1028800046415354002041545449545544455F4DEA
:10289000454400204750530020504D0020435455DC
:1028A0004E00204E54554E00205243494E002049C0
:1028B0004D550020434D44002043555252454E543F
:1028C000002052434F555400204F5054464C4F5710
:1028D0000020434F4D50415353002043414D45523A
:1028E0004100436F6D6D616E64733A0A20206C6F16
:1028F00067730A202073657475700A2020746573ED
:10290000740A20207265626F6F740A0A006F6E008D
:102910006F6666000A4F703A5B6F6E2C206F6666BA
:102920002C20302D335D0A00536F6E61720A005403
:102930007970653A2025642028303D584C2C203190
:102940003D4C562C20323D584C4C2C20333D4852A7
:102950004C562900506172616D65746572206E6F0E
:102960007420666F756E643A20272573270A00521B
:102970006164696F0A004348313A202564207C2055
:1029800025640A004348323A202564207C202564CF
:102990000A004348333A202564207C2025640A003D
:1029A0004348343A202564207C2025640A004348AB
:1029B000353A202564207C2025640A004348363AB5
:1029C000202564207C2025640A004348373A2025CE
:1029D00064207C2025640A004348383A202564207E
:1029E0007C2025640A004672616D650A005175619C
:1029F00064206672616D650A000A42617474204D3C
:102A00006F6E3A0A00766F6C747300766F6C747335
:102A100020616E642063757200466C69676874207B
:102A20006D6F6465730A00506F732025643A090066
:102A30002C090953696D706C653A20004F46460AAF
:102A40000053544142494C495A45004143524F00BA
:102A5000414C545F484F4C44004155544F0047553A
:102A600049444544004C4F495445520052544C008F
:102A7000434952434C4500504F534954494F4E002F
:102A80004C414E44004F465F4C4F49544552004420
:102A9000524946540053504F5254004D6F646528BC
:102AA000257529004F4E0A00496E76616C696420D5
:102AB000636F6D6D616E642E2055736167653A209A
:102AC000736574203C6E616D653E203C76616C756B
:102AD000653E0A00506172616D206E6F7420666FF2
:102AE000756E643A2025730A0056616C7565206F17
:102AF0007574206F662072616E676520666F722044
:102B00007479706520494E54380A0056616C7565B9
:102B1000206F7574206F662072616E676520666F26
:102B200072207479706520494E5431360A00436131
:102B30006E6E6F742073657420706172616D657460
:102B40006572206F6620747970652025642E0A00F6
:102B50000A275927203D20666163746F72792072BD
:102B6000657365742C20616E79206F7468657220BE
:102B70006B657920746F2061626F72743A0A000A83
:102B80005265626F6F7420626F617264000A43481D
:102B900020362052616E676573206172652064691A
:102BA000766964656420627920313030303A205B88
:102BB0006C6F772C20686967685D0A000A54554E6F
:102BC000453A0A002025642C204C6F773A25312E97
:102BD00034662C20486967683A25312E34660A002D
:102BE0000A0A526164696F2053657475703A000A6D
:102BF0004D6F766520616C6C20636F6E74726F6CC4
:102C00007320746F2065787472656D65732E20452E
:102C10006E74657220746F20736176653A20000AC5
:102C200053617665640A006F6E006F6666000A4F36
:102C3000703A5B6F6E2C206F66665D0A000A4D6FFE
:102C400064652073776974636820746F20656469B4
:102C5000742C2061696C65726F6E3A2073656C65C7
:102C60006374206D6F6465732C2072756464657283
:102C70003A2053696D706C65206F6E2F6F66660A1F
:102C8000000A45726173696E6720454550524F4D89
:102C90000A00646F6E650A00726164696F206E6F6E
:102CA000742063616C696272617465640A00636FA9
:102CB0006D706173732064697361626C65640A008E
:102CC00054686973207265636F72647320746865F9
:102CD00020696D70616374206F6E20746865206375
:102CE0006F6D70617373206F662072756E6E696EA2
:102CF0006720746865206D6F746F72732E20204D8D
:102D00006F746F72732077696C6C207370696E21B9
:102D10000A486F6C64207468726F74746C65206C00
:102D20006F772C207468656E2072616973652074FA
:102D30006F206D696420666F722035207365632C87
:102D4000207468656E20717569636B6C79206261AF
:102D5000636B20746F206C6F772E0A5072657373EB
:102D600020616E79206B657920746F2065786974B5
:102D70002E0A0A6D6561737572696E6720636F6DE7
:102D800070617373207673200043555252454E5440
:102D90000A005448524F54544C450A007468726FEC
:102DA00074746C65206E6F74207A65726F0A0063AC
:102DB0006865636B20636F6D706173730A000A4905
:102DC0006E746572666572656E63652061742066F7
:102DD000756C6C207468726F74746C6520697320F4
:102DE00025642525206F66206D6167206669656C06
:102DF000640A0A004661696C65642120436F6D7046
:102E0000656E736174696F6E2064697361626C656D
:102E1000642E202044696420796F7520666F726784
:102E2000657420746F207261697365207468652011
:102E30007468726F74746C65206869676820656E69
:102E40006F7567683F007468723A25642063757215
:102E50003A25342E3266206D6F7420783A25342E50
:102E6000316620793A25342E3166207A3A25342E7F
:102E700031662020636F6D7020783A25342E3266DB
:102E800020793A25342E3266207A3A25342E32665D
:102E90000A006F6E006F6666000A4F703A5B6F6ED5
:102EA0002C6F66665D0A00496E697469616C6973AE
:102EB000696E67206779726F73005365747570204F
:102EC0004D6F64650A0A0A000A215761726E696EC5
:102ED000672C20726164696F206E6F7420636F6E5F
:102EE0006669677572656421000A205479706520EF
:102EF00027726164696F27206E6F772E0A0A006D52
:102F0000697373696E67206C6F6720747970650AE6
:102F100000616C6C0041545449545544455F46412E
:102F200053540041545449545544455F4D45440061
:102F300047505300504D004354554E004E54554E8B
:102F4000005243494E00494D5500434D44004355FE
:102F50005252454E540052434F5554004F50544620
:102F60004C4F5700434F4D504153530043414D4543
:102F7000524100656E61626C650064756D70696ECA
:102F80006720616C6C0A00626164206C6F67206E60
:102F9000756D6265720A000A41726475436F7074E0
:102FA00065722056332E312E320A467265652052E4
:102FB000414D3A2025750A0041504D2032002553DD
:102FC0005D200068656C70006578697400496E76F4
:102FD000616C696420636F6D6D616E642C2074791F
:102FE0007065202768656C702700436F6D6D616E9A
:102FF00064733A00202025530A00454550524F4D36
:103000002066756C6C0025733A2025640A002573D0
:103010003A2025640A0025733A20256C640A0025AD
:10302000733A2025660A00556E6B6E6F776E2063CB
:103030006F6E76657273696F6E20272553270A00BD
:1030400042616420636F6E76657273696F6E20747F
:1030500079706520272553270A00DCDFE1E3E6E8E5
:10306000EBEDEFF2F4F7F9FCFE000305080A0C0F94
:10307000111416181B1D202224272C76D888674F80
:103080000823C1DFAE59B1B796E5E453C63A51996A
:103090007696E6C28426898C9B62407C6FFCBC9C41
:1030A0009F40BAA56FA590055A2A5C936B6C676D1B
:1030B000C11BE0E40D47F520E6B5D0ED902E00945D
:1030C00035770080841E0000204E000000C8333396
:1030D0003333986E128341EF8D21893BE655CFFE45
:1030E000E6DBD1844B38F77C1D90A4BBE42432840A
:1030F000725E8100C9F1ECA1E53D6E616E00696E02
:1031000066004572726F723A2041505F48414C5FD1
:103110004156523A3A415652416E616C6F67496E60
:10312000206F7574206F66206368616E6E656C73C6
:103130000D0A0050414E49433A2073636865647537
:103140006C65723A3A73797374656D5F696E697410
:1031500069616C697A65642063616C6C65646D6F2C
:103160007265207468616E206F6E636500474F4919
:103170004E4720444F574E20464F52204120524543
:10318000424F4F540D0A0050414E49433A20415698
:103190005253656D6170686F72653A3A74616B6520
:1031A00020757365642066726F6D20696E73696443
:1031B000652074696D65722070726F63657373004A
:1031C00050414E49433A2053504930207472616E49
:1031D0007366657220636F6C6C6973696F6E005003
:1031E000414E49433A205350493020777269746503
:1031F00020636F6C6C6973696F6E00010210202090
:10320000080810204010204080020102010804023A
:1032100001010204081020408080402010080402B0
:103220000180040201804020100804020108040209
:10323000010102040810204080010204081020400F
:103240008040050505050705080808080202020276
:103250000A0A080804040404010101010101010132
:103260000303030303030303040707070C0C0C0CFD
:103270000C0C0C0C020202020606060606060606E6
:103280000B0B0B0B0B0B0B0B050000200023002678
:103290000029002C002F003200000100000301066D
:1032A00001090100002200250028002B002E00311A
:1032B00000340002010000050108010B010000219B
:1032C00000240027002A002D0030003300010100F7
:1032D00000040107010A01327C8900EDD9687700FA
:1032E0000000590000000000000000D69FDCA81874
:1032F00017AA90437327F6B968EDF4DED409FEE609
:103300001C1C84DDE80B992927D6DF8D210F03646F
:1033100018EFEE1EF0B7828200941500F37C0000D7
:10332000001400988F00007F6A0000000000000079
:10333000E7B73F3600000000000000AF669ED038BF
:103340005DD36C20B9EB5D7C7C77044C803874864F
:10335000EDCB0000000000000000000000000000B5
:1033600000000000000000000000B1F10F86DBD07B
:10337000BC5416131586004E44BD7F9A1515900156
:10338000EA49B51653A78AEA0000000000000000D1
:10339000000000000000000000000000000000002D
:1033A000000000000000000000000000000000001D
:1033B000000000000000000000000000000000000D
:1033C00000000000000000000000000000000000FD
:1033D000CC31AA2C532E0024505352463130302C7D
:1033E000302C33383430302C382C312C302A3343C5
:1033F00000245047434D442C31362C302C302C3097
:103400002C302C302A36410D0A000096000000E1D5
:10341000000080250000C01200004F4B00207562A4
:103420006C6F782000204D544B31392000204D54D2
:103430004B200020534952462000204E4D4541204C
:10344000000100454E41424C4500000000000000D4
:103450000000000003000000803F04015241444985
:1034600055530000000000000000000000040000B0
:103470000048430402414343454C00000000000063
:10348000000000000000080000007A4400FF000077
:10349000000000000000000000000000000000002C
:1034A000000000000047505654470047504747412E
:1034B000004750524D430024505542582C34302C74
:1034C0006767612C302C312C302C302C302C302A7A
:1034D00037420D0A24505542582C34302C767467EC
:1034E0002C302C312C302C302C302C302A37460DFF
:1034F0000A24505542582C34302C726D632C302CD9
:10350000302C302C302C302C302A36370D0A002449
:10351000504D544B3331342C302C302C312C312C39
:10352000302C302C302C302C302C302C302C302CBB
:10353000302C302C302C302C302A32380D0A2450CC
:103540004D544B3333302C302A32450D0A24504D24
:10355000544B3331332C312A32450D0A24504D540B
:103560004B3330312C322A32450D0A00245053524D
:10357000463130332C302C302C312C312A32350D61
:103580000A24505352463130332C312C302C302CFD
:10359000312A32350D0A24505352463130332C3201
:1035A0002C302C302C312A32360D0A2450535246FE
:1035B0003130332C332C302C302C312A32370D0A59
:1035C00024505352463130332C342C302C312C3192
:1035D0002A32300D0A24505352463130332C352CC8
:1035E000302C312C312A32300D0A245053524631BE
:1035F00030332C362C302C302C312A32320D0A2428
:10360000505352463130332C382C302C302C312A48
:1036100032430D0A24505352463135312C312A336E
:10362000460D0A24505352463130362C32312A305E
:10363000460D0A00A0A20008A6020000000000003B
:1036400000A8B0B3A0A20008A60029010000000055
:1036500000D0B0B3B56206010300010601124F2489
:10366000505542582C34312C312C303030332C30E2
:103670003030312C33383430302C302A32360D0A89
:103680000050414E49433A2044617461466C617375
:10369000682053504944657669636544726976656C
:1036A00072206E6F7420666F756E640050414E49D3
:1036B000433A2044617461466C61736820535049F9
:1036C0004465766963654472697665722073656DD9
:1036D0006170686F7265206973206E756C6C00553F
:1036E0004E4B4E2C2025750A0025532C20002564B6
:1036F00000257500256400257500256C6400256C87
:103700007500256600252E326600252E32660025BE
:103710002E326600252E32660025730025730025A3
:1037200073002C2000464D542C2025752C20257527
:103730002C2025532C2025532C2025530A004446A9
:1037400020706167652C206C6F672066696C65204E
:10375000232C206C6F6720706167653A2025752CDB
:10376000090025752C090025750A004E6F2064613B
:103770007461666C61736820696E736572746564E8
:10378000004D616E7566616374757265723A2030C2
:1037900078253032782020204465766963653A20A8
:1037A0003078253034780A004E756D506167657346
:1037B0003A20257520205061676553697A653A2063
:1037C00025750A000A4E6F206C6F67730A0A000A9B
:1037D0002575206C6F67730A004C6F672025752C68
:1037E0002020202073746172742025752C202020E5
:1037F000656E642025750A0004024142535F5052F1
:1038000045535300000000000000000C00000000C1
:1038100000040354454D500000000000000000006B
:10382000000000000800000000000104414C545F4B
:103830004F464653455400000000000000100000B1
:1038400000000000FF000000000000000000000079
:1038500000000000000000000000000050414E4940
:10386000433A2041505F4261726F3A3A7265616437
:1038700020756E7375636365737366756C20666F10
:1038800072206D6F7265207468616E203530306D06
:103890007320696E2041505F4261726F3A3A6361F2
:1038A0006C696272617465205B315D0D0A00504184
:1038B0004E49433A2041505F4261726F3A3A726515
:1038C000616420756E7375636365737366756C20D0
:1038D000666F72206D6F7265207468616E2035307E
:1038E000306D7320696E2041505F4261726F3A3AC9
:1038F00063616C696272617465205B325D0D0A0000
:1039000050414E49433A2041505F4261726F3A3A0A
:103910007265616420756E73756363657373667534
:103920006C20666F72206D6F7265207468616E2006
:103930003530306D7320696E2041505F4261726F87
:103940003A3A63616C696272617465205B335D0D44
:103950000A0050414E49433A2041505F4261726F24
:103960005F4D533536313120646964206E6F7420A9
:103970006765742076616C696420535049206465E2
:103980007669636520647269766572210050414EE4
:1039900049433A2041505F4261726F5F4D53353663
:1039A000313120646964206E6F74206765742076FD
:1039B000616C6964205350492073656D6170687251
:1039C0006F65210050414E49433A206661696C653C
:1039D0006420746F2074616B65205F7370695F731E
:1039E000656D203130302074696D657320696E20FB
:1039F0006120726F772C20696E2041505F426172A6
:103A00006F5F4D53353631313A3A5F75706461748A
:103A1000650050414E49433A2041505F4261726F08
:103A20005F4D533536313120646964206E6F7420E8
:103A30006765742076616C69642049324320736540
:103A40006D617068726F65210050414E49433A20A4
:103A50006661696C656420746F2074616B65205FBA
:103A60006932635F73656D203130302074696D6534
:103A70007320696E206120726F772C20696E20415F
:103A8000505F4261726F5F4D53353631313A3A5F64
:103A90007570646174650050414E49433A2041504D
:103AA0005F4261726F5F4D53353631313A204E556A
:103AB0004C4C2073657269616C2064726976657222
:103AC0000050414E49433A2041505F4261726F5F5E
:103AD0004D53353631313A206661696C6564207426
:103AE0006F2074616B652073657269616C2073650A
:103AF0006D6170686F726520666F7220696E69749F
:103B00000050414E49433A2041505F4261726F5F1D
:103B10004D533536313120746F6F6B206D6F726588
:103B2000207468616E20313030306D7320746F20E6
:103B3000696E697469616C697A65004661696C6572
:103B40006420746F2067657420484D4335383433E2
:103B50002073656D6170686F72650005014F465393
:103B6000000000000000000000000000000017003E
:103B70000000000004024445430000000000000073
:103B80000000000000000023000000000001034CC2
:103B90004541524E000000000000000000000000FF
:103BA00008000000803F010455534500000000005C
:103BB00000000000000000000027000000803F011E
:103BC000054155544F4445430000000000000000EB
:103BD000000028000000803F01064D4F5443540070
:103BE0000000000000000000000000A40000000031
:103BF0000005074D4F5400000000000000000000C9
:103C000000000000A5000000000001084F524945D7
:103C10004E540000000000000000000000160000EC
:103C2000000000010945585445524E414C00000027
:103C300000000000000029000000000000FF00005C
:103C40000000000000000000000000000000000074
:103C500000000000002D00256C642E2530376C64B8
:103C60000043757276653A00783A0009793A00099E
:103C7000736C6F70653A0043757276653A00783AF6
:103C80000009793A0009736C6F70653A00437572E8
:103C900076653A00783A0009793A0009736C6F70DA
:103CA000653A0043757276653A00783A0009793AC8
:103CB0000009736C6F70653A0043757276653A005F
:103CC000783A0009793A0009736C6F70653A0043DD
:103CD000757276653A00783A0009793A0009736C92
:103CE0006F70653A00020050524F445543545F498B
:103CF0004400000000000000260000000000050154
:103D00004143435343414C000000000000000000C9
:103D10000028000000000005024143434F4646537F
:103D2000000000000000000000003400000000005F
:103D300005034759524F464653000000000000005B
:103D400000000040000000000001044D5055364BBB
:103D50005F46494C54455200000000004C000000F2
:103D6000000000FF00000000000000000000000054
:103D70000000000000000000000000496E6974208F
:103D80004779726F002A006779726F5B25755D2035
:103D9000646964206E6F7420636F6E766572676508
:103DA0003A20646966663D2566206470730A00499E
:103DB0006E697420416363656C002A0020006F6E99
:103DC00020697473204241434B00506C616365204D
:103DD00076656869636C6520255320616E64207088
:103DE0007265737320616E79206B65792E0A0046C7
:103DF00061696C656420746F2067657420494E5357
:103E00002073616D706C650A004F6666736574732C
:103E10005B25755D3A20252E326620252E326620E0
:103E2000252E32660A005363616C696E675B2575E7
:103E30005D3A20252E326620252E326620252E3230
:103E4000660A0043616C6962726174696F6E207307
:103E500075636365737366756C0A0043616C6962B0
:103E6000726174696F6E204641494C45440A006C8A
:103E70006576656C006F6E20697473204C454654FE
:103E80002073696465006F6E20697473205249471E
:103E900048542073696465006E6F736520444F5702
:103EA0004E006E6F7365205550004D5055363030C2
:103EB000303A20556E61626C6520746F20676574BE
:103EC0002073656D6170686F7265004D50553630B6
:103ED00030302073746172747570206661696C652E
:103EE000643A206E6F206461746120726561647948
:103EF0000050414E49433A206661696C6564207404
:103F00006F20626F6F74204D505536303030203541
:103F10002074696D65730050414E49433A20415009
:103F20005F496E65727469616C53656E736F725F21
:103F30004D5055363030303A3A5F706F6C6C5F647C
:103F4000617461206661696C656420746F207461BE
:103F50006B65205350492073656D6170686F7265A1
:103F60002073796E6368726F6E6F75736C79004D34
:103F70005055363030303A20556E61626C65207491
:103F80006F206765742073656D6170686F7265007E
:103F90004661696C656420746F20626F6F74204D98
:103FA00050553630303020352074696D65730054BB
:103FB000696D6564206F75742077616974696E67D7
:103FC00020666F72207573657220726573706F6EF4
:103FD00073650004024750535F4741494E0000009B
:103FE00000000000000024000000803F0103475053
:103FF000535F555345000000000000000000002CF6
:10400000000000803F04045941575F500000000049
:1040100000000000000000001C00CDCC4C3E040558
:1040200052505F500000000000000000000000003F
:10403000002000CDCC4C3E010657494E445F4D4117
:10404000580000000000000000002D0000000000EB
:1040500005085452494D0000000000000000000017
:104060000000003E000000000001094F5249454E8B
:10407000544154494F4E0000000000002E00000043
:104080000000040A434F4D505F4245544100000078
:1040900000000000002800CDCCCC3D010B47505360
:1040A0005F4D494E534154530000000000002F0063
:1040B0000000C040010C4750535F44454C4159003B
:1040C0000000000000000030000000803F00FF0002
:1040D00000000000000000000000000000000000E0
:1040E000000000000000040050000000000000007C
:1040F00000000000000000000000000000000004BC
:104100000149000000000000000000000000000065
:1041100000000400000000000202494D4158000068
:104120000000000000000000000000080000000087
:104130000000FF0000000000000000000000000080
:10414000000000000000000000000400500000001B
:10415000000000000000000000000000000000005F
:104160000000000401490000000000000000000001
:1041700000000000000004000000000004024400F1
:104180000000000000000000000000000000000827
:1041900000000000000203494D41580000000000EB
:1041A00000000000000000000C000000000000FF04
:1041B00000000000000000000000000000000000FF
:1041C0000000000000000002004D494E0000000009
:1041D000000000000000000000000A000080894488
:1041E00002015452494D0000000000000000000090
:1041F0000000000C000080BB4402024D415800004A
:104200000000000000000000000000000E00008020
:10421000ED4401035245560000000000000000007C
:10422000000000000010000000803F0205445A001A
:10423000000000000000000000000000000011006D
:104240000000000000FF000000000000000000006F
:104250000000000000000000000000000008000056
:10426000000000000000000000000000000000004E
:104270000000C7410000010146554E4354494F4ECE
:104280000000000000000000001D00000000000011
:10429000FF0000000000000000000000000000001F
:1042A00000000000000000000101544352565F4529
:1042B0004E41424C450000000000003000000080EC
:1042C0003F0102544352565F4D494450435400004D
:1042D00000000000310000005042010354435256D8
:1042E0005F4D415850435400000000000032000070
:1042F00000BA4202055350494E5F41524D454400B9
:10430000000000000000330000008C4200FF0000AD
:10431000000000000000000000000000000000009D
:10432000000000000041505F4D6F746F72733A20BF
:104330006661696C656420746F2063726561746581
:10434000207468726F74746C652063757276650092
:10435000010050494E000000000000000000000075
:10436000000000000000005041010150494E3200A1
:10437000000000000000000000000000010000003C
:1043800080BF010250494E330000000000000000D1
:1043900000000000000200000080BF010350494EF1
:1043A00034000000000000000000000000000300D6
:1043B000000080BF00FF00000000000000000000BF
:1043C0000000000000000000000000000001005498
:1043D000524947475F545950450000000000000013
:1043E00000000000000001014455524154494F4E65
:1043F0000000000000000000000100000020410259
:1044000002534552564F5F4F4E000000000000001F
:10441000000002000080A2440203534552564F5F41
:104420004F464600000000000000000400008089A4
:1044300044040454524947475F4449535400000020
:104440000000000009000000000000FF0000000064
:10445000000000000000000000000000000000005C
:1044600000000001004D4F44450000000000000026
:104470000000000000003600000000000501524569
:104480005452414354000000000000000000004767
:10449000000000000005024E45555452414C0000FA
:1044A00000000000000000005300000000000503B1
:1044B000434F4E54524F4C000000000000000000DB
:1044C000005F00000000000104535441425F524F5E
:1044D0004C4C000000000000000033000000000011
:1044E0000105535441425F54494C54000000000000
:1044F0000000003400000000000106535441425FF8
:1045000050414E0000000000000000003500000097
:104510000000010752435F494E5F524F4C4C000070
:1045200000000000003700000000000208414E4774
:104530004D494E5F524F4C000000000000003A0011
:1045400000A08CC50209414E474D41585F524F4C67
:10455000000000000000003C0000A08C45010A5251
:10456000435F494E5F54494C540000000000000076
:10457000380000000000020B414E474D494E5F5489
:10458000494C000000000000003E0000A08CC50265
:104590000C414E474D41585F54494C00000000000B
:1045A0000000400000A08C45010D52435F494E5F62
:1045B00050414E00000000000000003900000000E3
:1045C00000020E414E474D494E5F50414E000000E3
:1045D00000000000420000A08CC5020F414E474D74
:1045E00041585F50414E00000000000000440000B0
:1045F000A08C4501104A535449434B5F535044002B
:1046000000000000000046000000000000FF000065
:10461000000000000000000000000000000000009A
:104620000000000000040154435F585900000000DE
:104630000000000000000000140000002040040200
:1046400054435F5A0000000000000000000000001A
:104650000065000000A04000FF0000000000000016
:10466000000000000000000000000000000000004A
:1046700004005350454544000000000000000000C5
:1046800000000011000000FA430401524144495562
:104690005300000000000000000000001D000000AA
:1046A0004843040253504545445F55500000000004
:1046B0000000000000150000007A43040353504539
:1046C00045445F444E000000000000000000190057
:1046D0000000164304044C4F49545F535045454471
:1046E000000000000000000D000000FA4304054136
:1046F0004343454C000000000000000000000000A3
:1047000021000000C84200FF00000000000000007F
:104710000000000000000000000000000000009603
:10472000918C87827D78736E69645F5A55504B46D1
:10473000413C37322D28231E19140F0A05000409A5
:104740000E13181D22272C31363B40454A4F545931
:104750005E63686D72777C81868B90959A9FA4A921
:10476000AEB3AFAAA5A09B968F89837E78736E693E
:10477000645F5A55504B47423E3935302C27231F32
:104780001B16120E09050103070B1014191D222612
:104790002B2F34393D42474C51565B60656B707529
:1047A0007B80868C92979DA3A9AFB2ACA6A09A9469
:1047B0008F827C76706B65605C57524E4A46413DF5
:1047C0003936322E2A26221F1B1713100C0804011B
:1047D00002060A0E12161A1E22262B2F33383D41CE
:1047E000464B4F54595E64696F747A80878D949BF1
:1047F000A2AAB1AEA69F979089826F68635E595551
:10480000514D4946423F3C3835322E2B2824211E3B
:104810001A1714100D0A0603000306090D101418C8
:104820001C2024282C3034393D41464A4F54585DD1
:1048300062676D737980878F98A2ACB0A59A9086D5
:104840007D766F55514D4A4744413F3C3A383533A8
:10485000312E2B292623201D1A1713100D0A0704A9
:1048600001010306090D1013171A1E22262A2E32E3
:10487000363A3E42464A4E53575B5F64696E757CDA
:1048800085909FB2A08D7D7067605A553E3C3A3945
:104890003736343332302F2E2C2A292724221F1C5E
:1048A000191613100D0A070402000305080A0D105B
:1048B00013161A1D2125292D3135383C4043464A0F
:1048C0004D505356595B5E6165696F826D544D4A18
:1048D000474442403E2E2E2D2C2C2B2A2A292928B3
:1048E0002726252423211F1C1A1714100D0A07043C
:1048F0000101030507090C0E1013161A1D212428A7
:104900002C3033373A3D40424447484A4A4B4A48A4
:10491000443D3019021621282B2D2E2F2E2E06094C
:104920000C0F121517191B1C1B1811040E223138FD
:104930003C3C3C3A3835322F2B2824201C191511C9
:104940000D09050102060A0E1115181C1F22252744
:10495000292A2B2B2926211911080004080A0A0AE2
:104960000807040200030616181A1C1E20211F1730
:1049700012516063625F5D5956524E4A46423E395B
:1049800035312C2824201B17130E0A060102060AB3
:104990000F13171B1F23262A2D313437393C3D3F77
:1049A0003F3E3D39352F28211C17151313131416BC
:1049B000A8ADB2B0ABA6A19C97928D88837E797486
:1049C0006F6A65605B56514C47423D38332E29244F
:1049D0001F1A15100B060103080D12171C21262B98
:1049E00030353A3F44494E53585D62676C71767B6F
:1049F00080858A8F94999EA3A800000001FFFFE0A4
:104A000000000000000001FFFFF0000000000000B7
:104A100001FFFFF800000000000001FFFFFE0000A2
:104A20000000000003FFFFFF00000000000003FF84
:104A3000FFFFF000000000000FFFFFFFFE0000007E
:104A400003FFFFFC000007FC00007FFFFFFC0000ED
:104A500000000000001FFFFE0000000000241E19DF
:104A60001512100E0C0B0A0909090808080706069A
:104A70000504040403040404000000000000000016
:104A8000000027262123252325242722292A2A1C22
:104A900027282B33322725222C33313037000000D2
:104AA000000000000000008011401140713273349A
:104AB0003332131211321112933413145352310042
:104AC00021030406080B2D0A090705040241C01141
:104AD000C051125354731211125152731473323164
:104AE0000021020405060708090806070624030238
:104AF0000102000120012011C001110031321374A4
:104B000013143312F112D3125100010223250607A8
:104B100046442342210001E0A0313213B433111284
:104B200011001120110052331213321120012224DE
:104B300085042304020342410001E0A05112141332
:104B40001513153413325140012011521332310024
:104B5000012223040504050423010382612001E0EE
:104B600011801132135415143332314021020100E7
:104B700031723141022344230201220122010261E8
:104B80004001A01180511214133415143312314016
:104B900001020103020120521112202122430422AA
:104BA00041022102A10001E020114051537413324F
:104BB00011402102030203020100111211320011FF
:104BC0004122232221004102A180016011601100D5
:104BD00011323374131211400162030203213112A6
:104BE0001112114001020102030201000100E12142
:104BF000E0A01120121173343331200162036240AE
:104C00001211121100110100010201220001200104
:104C100000E1C001001180110012111312141334AD
:104C2000522001E202212031121100110001002165
:104C30000201000140210002410001E06011401129
:104C40001211131214131413321100212203420102
:104C50000221000100110012110011200100416029
:104C60000100C100014011200160114051121312D6
:104C700013143312310001420322010221000140CA
:104C80001100310011000100010001A0E10001A0AC
:104C90000180112031529312110021C221002140C4
:104CA000310011201100010001E0E16001E011007C
:104CB00011727312310021420301020102202140CE
:104CC0001100112011600140116001000102210258
:104CD000000120014001A051321312533211200172
:104CE000020182210021000100110031E0001100C9
:104CF00011602100010201020101002120010001D7
:104D0000601100115213121413521100418201025A
:104D100000010021401100110011A011003100110B
:104D200020812201010002010021000160110052D6
:104D30001312131413323101000201220142010047
:104D400021000100011120110011201140710011FA
:104D500040010221020102010021022100010001A3
:104D6000001100121112331234133211200102010A
:104D700042012201004100016011201100110011C7
:104D80000051123120610201220200020102812041
:104D9000110012117334133211004102018201001B
:104DA0006100018011001100913231402142010265
:104DB00002006261401152141354333100418201E8
:104DC00022000102004100016091121152512001A4
:104DD0002201030102020082610051335415143391
:104DE00031002102012203424102A180319213329B
:104DF000310041220302010300220322010201408B
:104E00001112339533310100220103420322212282
:104E100001026100011100115213125312310041BD
:104E20002203220300230203020102212032131471
:104E3000161517161533112001620302030203220F
:104E400001A2414011125314131413321101000234
:104E50000102030203020200022302032221203284
:104E600014163718171513121100212203024302DA
:104E70004301030203822120111213141534151467
:104E80003211000162230203004302034201201297
:104E9000131518193A1715131100210203026304A0
:104EA000E302030203020102401213141517151640
:104EB000341220212243020300A322010011121503
:104EC000181C1E1D191613110002010302030423EE
:104ED00004032403044304230403020342201112A5
:104EE000141517183615133121020302230203018A
:104EF00000454E41424C450000000000000000000B
:104F0000000002000000000001015459504500005B
:104F1000000000000000000000000003000000404E
:104F2000400102414354494F4E0000000000000080
:104F30000000000004000000803F0403414C545F67
:104F40004D41580000000000000000000005000076
:104F500000C8420404524144495553000000000077
:104F600000000000000009000000164304054D4148
:104F70005247494E00000000000000000000000DF4
:104F8000000000004000FF000000000000000000E2
:104F90000000000000000000000000000000010010
:104FA000444542554700000000000000000000009A
:104FB0000000000000000000FF00000000000000F2
:104FC00000000000000000000000000000000000E1
:104FD0005363686564756C657220736C69702074C6
:104FE00061736B5B25755D202825752F25752F2531
:104FF00075290A005363686564756C6572206F7665
:10500000657272756E207461736B5B25755D202807
:1050100025752F2575290A000100524F4C4C0000C0
:105020000000000000000000000000000000008000
:105030003F010150495443480000000000000000B7
:105040000000000001000000004001025448524FDF
:1050500054544C4500000000000000000003000014
:1050600000404001035941570000000000000000CB
:1050700000000000000002000000804000FF00006F
:105080000000000000000000000000000000000020
:10509000000000000001004D4F4E49544F520000E7
:1050A00000000000000000000000000000000101FE
:1050B000564F4C545F50494E000000000000000065
:1050C000000100000050410102435552525F504917
:1050D0004E000000000000000000020000004041FF
:1050E0000403564F4C545F4D554C540000000000D3
:1050F00000000003009A9921410404414D505F5083
:105100004552564F4C5400000000000007000000BC
:1051100088410405414D505F4F46465345540000B9
:1051200000000000000B0000000000030643415097
:1051300041434954590000000000000000000F00E6
:1051400000404E4500FF000000000000000000008D
:105150000000000000000000000000000000FF0050
:10516000000000000000000000000000000000003F
:10517000000000000000494E46494E4954594E4136
:105180004E000020410000C84200401C4620BCBE2A
:105190004CCA1B0E5AAEC59D74CDCCCC3D0AD7234C
:1051A0003C17B7D13877CC2B329595E6241FB14FF9
:1051B0000A000D941E0E0D94FF200D9412360D94CE
:1051C00086700D94B89C0D94D3240D946E8E0D941E
:1051D000946F0D94E13D0D94154D0D94FC310D949B
:1051E000806A0D94DF000D940F540D94CE9B0D94A6
:1051F0005D370D944A140D94D5130D9408580D94F1
:10520000466A0D9432770D94BB240D9456200D946C
:105210006C130D941F040D945C840D94ED2F0D946C
:1052200051020D94E13F0D94861B0D9459730D941A
:1052300002580D94F3C90D94A2150D94A4A40D94D5
:10524000A2970D945A080D9487240D94632C0D9405
:10525000CC000D949F1D0D94D9040D9489930D9449
:10526000C06D0D9485550D9490940D94708E0D9491
:10527000D8C80D942A110D94F6000D9489550D94FB
:1052800062150D949AB80D948E440D942F150D94BB
:10529000644D0D94EA940D948E550D94C08F0D9429
:1052A00045320D9417680D9486740D94DABE0D94F2
:1052B0000A360D94024B0D946E630D943DA40D942B
:1052C000834D0D948F310D9461910D948E6F0D94DB
:1052D000474F0D9474630D94EF4F0D94AE240D94CD
:1052E00087550D9457880D94BF880D9471310D9496
:1052F00044300D945D450D94FB350D94334E0D9463
:1053000061300D948C100D94F34D0D94D2580D9482
:10531000429E0D944BA00D94B08D0D94F1130D94FD
:10532000F5920D941A730D94FD4D0D94604E0D94ED
:10533000A4C90D9428680D949F9D0D94AB8E0D9477
:10534000BA6D0D9401280D94E14F0D944A300D94DF
:1053500026140D9489680D94D4C90D9425040D94D8
:10536000622F0D94AA100D9495730D94EBCB0D94B0
:10537000CE210D94A82F0D94B6000D94E6000D9447
:10538000D91E0D941F390D948A2F0D946FC70D945B
:1053900009750D9431230D949C150D94CE190D941F
:1053A000861A0D94C62F0D9471900D947F560D940E
:1053B000C9250D94364A0D948C4D0D94EF0F0D9424
:1053C000E04D0D9479190D94142F0D94BC4E0D944D
:1053D0009B230D94B04F0D94B9310D949D220D94E3
:1053E00078340D9464410D94C3B00D9425390D9417
:1053F0001A1B0D9483550D9460C70D94937D0D94E5
:1054000074250D94CF840D94F92A0D94091A0D94E6
:105410005C200D9462640D9417550D9453270D94E0
:1054200030680D9474B10D945D1F0D942E740D941D
:105430001D550D9458170D94C2B40D940F160D946C
:1054400093360D943B960D9458290D94D6C80D941F
:10545000A1540D945F500D9454640D94000A0D9462
:10546000D8000D940CCA0D9415830D94E4260D9468
:1054700003100D94D7980D94270F0D94D8420D94D6
:10548000CA4E0D9493240D9472300D940E010D9418
:10549000700F0D9492550D94A1870D9463A80D94EF
:1054A00081710D94866A0D94B1410D94AE8C0D946A
:1054B000A0C90D944A440D948D360D94E0130D94BB
:1054C000424F0D9407700D9438680D94950E0D940D
:1054D00076640D9420CB0D94AF0D0D94AA560D94C7
:1054E00008360D948EBE0D9470640D94A0690D94D1
:1054F000902C0D9435870D9420220D9454A50D9475
:1055000088880D9467910D94A1250D9412CA0D946D
:105510005D5C0D9402260D9475890D94984F0D9441
:1055200062AB0D94DA3B0D94670F0D9411880D94C6
:10553000F84E0D940B520D947F300D942B490D9421
:1055400089310D94C1490D942D4D0D94479D0D94B5
:10555000B12E0D94F8C80D94B4B60D94F1BF0D940E
:10556000B3D10D941E400D948A5C0D9488720D94F5
:10557000CE700D94EC220D94A4830D942E540D94B2
:105580009D4E0D94F7950D94D2280D944E060D94D2
:1055900028540D94D4700D942B150D94F5140D947E
:1055A000201B0D94094D0D947BAC0D94EA260D94AF
:1055B00092720D94C9910D9429B90D94BAC80D94A5
:1055C000F9200D9475150D94B80F0D94D4210D94F8
:1055D0006F8E0D94885F0D948D760D942C460D94EE
:1055E000BEB70D94468F0D943E1C0D948D3C0D94CA
:1055F00003140D9435430D94DA6E0D9420730D94BD
:10560000A4560D9471C70D9491220D9441150D94DB
:10561000AE250D946C4F0D94A1230D94810A0D9429
:10562000688E0D94902F0D9457370D940B4F0D9459
:10563000AF1C0D946A6D0D94EDA80D945B250D942F
:10564000A9480D947DBA0D94825F0D9413300D948A
:10565000204E0D9487710D94ACC00D9453700D9431
:1056600047680D94D6720D94948C0D946D4E0D94E4
:105670007A8F0D944B010D9464790D94764F0D94AF
:10568000E4940D94B6070D946F890D94D6690D942A
:105690008C4E0D947ACA0D9482820D94F4C80D94A8
:1056A00082880D948B550D9441960D94141E0D9483
:1056B0009D860D942BA00D9481550D948A330D94E5
:1056C0000AA50D9491170D9474CA0D94F73B0D948F
:1056D000A7540D94F1500D94D31E0D94210F0D94E9
:1056E000317D0D94820F0D94A3C80D94EF280D9475
:1056F000C7880D94991D0D94646D0D9454060D94F6
:10570000BE700D94801A0D94D7900D945FC30D94C4
:10571000B0700D94237A0D94B1C70D94940F0D942D
:105720007D310D94BCC80D941D4A0D94992B0D9498
:10573000F5240D9454080D94E3010D9419250D944E
:10574000854F0D94E4240D94790F0D9414720D94EB
:10575000CC290D94CC130D946D700D94AA270D9443
:10576000D34D0D94F32F0D94CC580D945A4F0D94A6
:1057700083720D94CA4F0D9492150D94B7750D94C4
:105780009BC90D94905C0D9439730D9422500D9427
:1057900090550D9496150D940E720D94DA520D9449
:1057A000A6000D942E8D0D9421260D9419300D9484
:1057B00072130D94481C0D94B44D0D94BD2C0D9492
:1057C0007E720D94BDA60D94D8B90D94C5130D9499
:1057D000284D0D9498550D94251D0D9407280D9472
:1057E0006D4C0D94682F0D945EAD0D9441240D9475
:1057F00059700D940F1A0D94E4250D944C020D94DC
:105800008F520D9488000D941A1E0D943D4F0D94E7
:1058100050150D94B92F0D948F930D94F6C80D94D7
:10582000130B0D940C360D9412200D9438150D9415
:10583000F3170D94564D0D9436250D94592A0D9459
:10584000A8C80D94F53C0D94AF4D0D9472140D94B1
:105850008FB40D944C520D941D680D948F730D945C
:1058600008500D94E8870D9459270D94DE190D9476
:10587000CD880D9453140D9419880D94825511C739
:1058800011EAC7F2E1F6E4F6B9F77B2911241FBE4D
:10589000CFEFD1E2DEBFCDBF00E00CBF16E0A0E04D
:1058A000B2E0E6E4FEEA03E00BBF02C007900D920F
:1058B000A237B107D9F718E1A2E7B6E001C01D92FF
:1058C000A535B107E1F718E5CCE8D8E500E006C05A
:1058D00022970109FE010BBF0F9425D3CE37D107C4
:1058E00080E00807A9F70E944CB20D9421D70C94D0
:1058F00000000895089560917D1270917E1280914C
:105900007F12909180126093D8087093D908809389
:10591000DA089093DB082DEC3CEC4CEC5DE30F9443
:1059200027D06093DC087093DD088093DE089093A5
:10593000DF088091851290918612A0918712B09114
:1059400088128093E0089093E108A093E208B09356
:10595000E3088091891290918A12A0918B12B091E4
:105960008C128093DE099093DF09A093E009B09335
:10597000E10960918D1270918E1280918F12909139
:1059800090126093F2087093F3088093F408909358
:10599000F5082DEC3CEC4CEC5DE30F9427D06093C4
:1059A000F6087093F7088093F8089093F9088091AF
:1059B000951290919612A0919712B091981280939F
:1059C000FA089093FB08A093FC08B093FD0880911F
:1059D000991290919A12A0919B12B0919C1280936F
:1059E000EC099093ED09A093EE09B093EF09E8E07C
:1059F000FFE080818D7F8083089580917D1290915A
:105A00007E12A0917F12B09180128093D80890935B
:105A1000D908A093DA08B093DB08809181129091A5
:105A20008212A0918312B09184128093DC0890932B
:105A3000DD08A093DE08B093DF0880918512909175
:105A40008612A0918712B09188128093E0089093FB
:105A5000E108A093E208B093E30880918912909145
:105A60008A12A0918B12B0918C128093DE099093D0
:105A7000DF09A093E009B093E10980918D12909124
:105A80008E12A0918F12B09190128093F208909391
:105A9000F308A093F408B093F508809191129091C7
:105AA0009212A0919312B09194128093F608909361
:105AB000F708A093F808B093F90880919512909197
:105AC0009612A0919712B09198128093FA08909331
:105AD000FB08A093FC08B093FD0880919912909167
