:1000000072C000009EC000009CC000009AC00000AA
:1000100098C0000096C0000094C0000092C000008C
:1000200090C000008EC000008CC000008AC000009C
:1000300088C0000086C0000084C0000082C00000AC
:1000400080C000007EC000007CC000007AC00000BC
:1000500078C0000076C0000074C00000FAC1000043
:1000600070C00000BBC2000090C200006AC0000067
:1000700068C0000066C0000064C0000062C00000EC
:1000800060C000005EC000005CC000005AC00000FC
:1000900053C2000028C2000054C0000052C000003B
:1000A00050C000004EC000004CC000004AC000001C
:1000B00048C0000046C0000044C0000042C000002C
:1000C00040C000003EC000003CC000003AC000003C
:1000D00038C0000036C0000034C0000032C000004C
:1000E00030C00000170311241FBECFEFD1E2DEBFE6
:1000F000CDBF00E00CBF12E0A0E0B2E0ECE1F8E020
:1001000000E00BBF02C007900D92A635B107D9F7EA
:1001100023E0A6E5B2E001C01D92A939B207E1F7DC
:1001200010E0C3E7D0E000E005C021970109802F6F
:10013000FE0166D3C237D10780E00807B1F7CAD203
:100140006BC35ECFFC01A089B18982E08C93A4854A
:10015000B5851C92A685B7858FEC8C93108EA489EB
:10016000B58986E08C93A289B3898C9180618C9348
:10017000A289B3898C9188608C93A289B3898C9170
:1001800080688C930288F389E02D80818F7D808345
:100190000895CF92DF92EF92FF920F931F93CF9328
:1001A000DF936C017A018B01C0E0D0E0CE15DF0552
:1001B00089F0D8016D918D01D601ED91FC910190EE
:1001C000F081E02DC6011995892B11F47E0102C042
:1001D0002196ECCFC701DF91CF911F910F91FF9036
:1001E000EF90DF90CF900895FC01A089B1898C91A8
:1001F000A689B78982FD0FC09C91818D8F5F8F7317
:10020000228D821749F0218DDF01A20FB11D5D966D
:100210009C93818F08958C910895FC01918D828D1E
:10022000981761F0828DDF01A80FB11D5D968C914A
:10023000928D9F5F9F73928F90E008958FEF9FEF55
:100240000895FC01918D828D981731F0828DE80F11
:10025000F11D858D90E008958FEF9FEF0895FC01CB
:10026000918D228D892F90E0805C9F4F821B910998
:100270008F73992708958FE592E0F1DF21E0892BB4
:1002800009F420E0822F08958CEF92E0E8DF21E06E
:10029000892B09F420E0822F0895FC01848DDF0171
:1002A000A80FB11DA35ABF4F2C91848D90E00196E9
:1002B0008F739927848FA689B7892C93A089B189D8
:1002C0008C9180648C93938D848D981306C00288E2
:1002D000F389E02D80818F7D80830895EF92FF92D6
:1002E0000F931F93CF93DF93EC0181E0888F9B8D59
:1002F0008C8D981305C0E889F989808185FD23C01C
:10030000F62E0B8D10E00F5F1F4F0F731127E02E9D
:100310008C8DE8120BC00FB607FCFACFE889F9897B
:10032000808185FFF5CFCE01B8DFF2CF8B8DFE0146
:10033000E80FF11DE35AFF4FF0820B8FEA89FB892A
:100340008081806207C0EE89FF896083E889F9892E
:1003500080818064808381E090E0DF91CF911F9164
:100360000F91FF90EF900895CF93DF93EC01888D6C
:100370008823C1F0EA89FB89808185FD05C0A889B1
:10038000B9898C9186FD0EC00FB607FCF5CF808130
:1003900085FFF2CFA889B9898C9185FFEDCFCE0179
:1003A0007CDFE8CFDF91CF91089580E090E0892B4A
:1003B00019F06ADF811120C080E090E0892B19F0EC
:1003C0005ADF81111CC080E090E0892B41F080E071
:1003D00090E0892B21F00E940000811113C080E081
:1003E00090E0892BA1F080E090E0892B81F00E94C1
:1003F000000081110AC008950E940000DDCF0E9414
:100400000000E1CF0E940000EACF0C9400000895A4
:10041000CF93DF93009771F0FC0101900020E9F782
:100420003197AF01481B590BBC018CEF92E0B1DE54
:10043000EC0102C0C0E0D0E042E050E060E172E0D8
:100440008CEF92E0A6DE8C0F9D1FDF91CF91089577
:10045000DFD11F920F920FB60F9211242F933F936B
:100460008F939F93AF93BF9380915B0290915C02B7
:10047000A0915D02B0915E0230915A0223E0230FF9
:100480002D3720F40196A11DB11D05C026E8230FCC
:100490000296A11DB11D20935A0280935B02909396
:1004A0005C02A0935D02B0935E028091560290912F
:1004B0005702A0915802B09159020196A11DB11D99
:1004C0008093560290935702A0935802B09359021A
:1004D000BF91AF919F918F913F912F910F900FBE40
:1004E0000F901F9018951F920F920FB60F92112424
:1004F0000BB60F922F933F934F935F936F937F931E
:100500008F939F93AF93BF93EF93FF938FE592E009
:10051000C4DEFF91EF91BF91AF919F918F917F9139
:100520006F915F914F913F912F910F900BBE0F9064
:100530000FBE0F901F9018951F920F920FB60F923B
:1005400011240BB60F922F933F934F935F936F93AA
:100550007F938F939F93AF93BF93EF93FF938FE519
:1005600092E042DEFF91EF91BF91AF919F918F9109
:100570007F916F915F914F913F912F910F900BBEA3
:100580000F900FBE0F901F9018951F920F920FB6ED
:100590000F9211240BB60F922F933F934F935F93BB
:1005A0006F937F938F939F93AF93BF93EF93FF933B
:1005B0008CEF92E072DEFF91EF91BF91AF919F912E
:1005C0008F917F916F915F914F913F912F910F90FC
:1005D0000BBE0F900FBE0F901F9018951F920F9299
:1005E0000FB60F9211240BB60F922F933F934F9398
:1005F0005F936F937F938F939F93AF93BF93EF938B
:10060000FF938CEF92E0F0DDFF91EF91BF91AF91FE
:100610009F918F917F916F915F914F913F912F911A
:100620000F900BBE0F900FBE0F901F901895EFE527
:10063000F2E01382128248EE53E060E070E04483FF
:1006400055836683778384E092E0918380832DECE9
:1006500030E0358724872CEC30E03787268728EC7C
:1006600030E0318B208B29EC30E0338B228B2AEC6D
:1006700030E0358B248B2EEC30E0378B268B118EBF
:10068000128E138E148EECEFF2E0138212824483EA
:100690005583668377839183808385EC90E095878B
:1006A000848784EC90E09787868780EC90E0918B3C
:1006B000808B81EC90E0938B828B82EC90E0958B29
:1006C000848B86EC90E0978B868B118E128E138E26
:1006D000148E0895789484B5826084BD84B5816059
:1006E00084BD85B5826085BD85B5816085BD8091FD
:1006F0006E00816080936E00109281008091810075
:10070000826080938100809181008160809381006C
:10071000809180008160809380008091B10084602E
:100720008093B1008091B00081608093B00080918F
:10073000910082608093910080919100816080930C
:100740009100809190008160809390008091A10041
:1007500082608093A1008091A10081608093A100BC
:100760008091A00081608093A0008091210182602F
:1007700080932101809121018160809321018091EA
:10078000200181608093200180917A0084608093B1
:100790007A0080917A00826080937A0080917A005A
:1007A000816080937A0080917A00806880937A00DB
:1007B0001092C1008CEF92E0C5DC83E192E028DE6C
:1007C00085E392E025DE8FE592E0BCDC8FE592E0E8
:1007D00046DD892B39F08FE592E01FDD682F8CEF25
:1007E00092E07CDD8CEF92E03ADD892B39F08CEFE2
:1007F00092E013DD682F8FE592E070DDD6DDE6CF65
:10080000EE0FFF1F881F8BBF0790F691E02D199404
:0C08100081E090E0F89400C0F894FFCF65
:10081C00000000006E01C9002F010D012101B4017F
:10082C000D0A002D2D2D3D3D796F75747562652E69
:10083C00636F6D2F62616E6773363939363D3D3D9E
:10084C003D2D2D2D0053696D706C6520752D6365E4
:10085C006E74657220746F6F6C20666F722061709D
:06086C006D2067707300AF
:00000001FF
