:100000000C940A020C9432020C9432020C943202C8
:100010000C9432020C9432020C9432020C94320290
:100020000C9432020C9432020C9432020C94320280
:100030000C9432020C9432020C9432020C94320270
:100040000C94E8320C9432020C949D060C94D90660
:100050000C9432020C9432020C9432020C94320250
:100060000C9432020C9432020F090F091509180979
:100070001B091E092109240927092A092D0930090C
:100080003309360939093C093F09084AD73B3BCEB9
:10009000016E84BCBFFDC12F3D6C74319ABD568387
:1000A0003DDA3D00C77F11BED9E4BB4C3E916BAA3F
:1000B000AABE000000803F05A84CCDB2D44EB9388E
:1000C00036A9020C50B9918688083CA6AAAA2ABE75
:1000D000000000803F0664EC1B3C04BC163E3BE580
:1000E000B93CC93C37C29E5A3D660498083EEA694D
:1000F000AAAA3E000000803FEAEB00EAEC00426F53
:100100006F74696E672075703AEDF2F2F2F2F2F2F6
:10011000F2F30057616974696E6720666F727C4DF7
:1001200041564C696E6B20686561727462656174DA
:10013000732E2E2E00202020202020BABBBCBDBE56
:100140007C202020202020CACBCCCDCE7C417264E4
:100150007543414D204F53442076322E3000C82045
:100160002020202020202020202020C900C820205E
:1001700020202020202020202020C97C00D82020E2
:1001800020202020202020202020D97C00C82020D2
:1001900020202020202020202020C97C00C82020D2
:1001A00020202020202020202020C97C00050304BE
:1001B000057C1513141500426174746572792077FB
:1001C00061726E696E6720002020205374616C6C30
:1001D00020537065656420202000202020204F7669
:1001E0006572737065656420202020004368617229
:1001F00020446F6E650A00526561647920666F72F3
:1002000020466F6E740A00557064617465204368FF
:10021000617253657400EEEEEEEEEEEEEEEE00EE81
:10022000EEEEEEEEEEEE00EEEEEEEEEEEEF000EEC8
:10023000EEEEEEEEF0F200EEEEEEEEF0F2F200EEAA
:10024000EEEEF0F2F2F200EEEEF0F2F2F2F200EE8A
:10025000F0F2F2F2F2F200EFF2F2F2F2F2F200F168
:10026000F2F2F2F2F2F20052657175657374696E22
:1002700067204461746153747265616D732E2E2E14
:1002800000454550524F4D206D617070696E67207A
:100290006F75746461746564217C55706461746504
:1002A000207769746820746865204F534420546F28
:1002B0006F6C2E0000407A10F35A00A0724E18099D
:1002C0000010A5D4E80000E87648170000E40B54BD
:1002D000020000CA9A3B000000E1F505000080968C
:1002E0009800000040420F000000A08601000000BE
:1002F000102700000000E803000000006400000078
:1003000000000A00000000000100000000002C7640
:10031000D888DC674F0823DFC1DFAE59E1B1B7965B
:10032000E5E3E453C63AE651997696E8E6C28426B8
:10033000EB898C9B62ED407C6FFCEFBC9C9F40F294
:10034000BAA56FA5F490055A2AF75C936B6CF96710
:100350006DC11BFCE0E40D47FEF520E6B500D0EDD5
:10036000902E0300943577050080841E080000203D
:100370004E0A000000C80C333333330F986E1283DB
:100380001141EF8D2114893BE65516CFFEE6DB18AF
:10039000D1844B381BF77C1D901DA4BBE424203274
:1003A00084725E228100C9F124ECA1E53D276E61D3
:1003B0006E00696E660000000000240027002A001D
:1003C00000000000250028002B0000000000230092
:1003D00026002900040404040404040402020202A6
:1003E00002020303030303030102040810204080F8
:1003F0000102040810200102040810200000000778
:1004000000020100000304060000000000000000DC
:100410001D087E2B11241FBECFEFD8E0DEBFCDBF5D
:1004200014E0A0E0B1E0ECEAF1E702C005900D9223
:10043000A633B107D9F716E0A6E3B4E001C01D92D8
:10044000A534B107E1F714E0C4E1D4E004C0229779
:10045000FE010E94D038C031D107C9F70E946F3425
:100460000C94D4380C940000283008F027E033278F
:10047000DA01990F311D87FD9160009661057105C4
:1004800039F432602E5F3D9330E32A95E1F7089509
:100490009F3F30F080387105610509F03C5F3C5F9B
:1004A0003D93913008F08068911DDF93CF931F93A7
:1004B0000F93FF92EF92192F987F9695E92F9695BB
:1004C0009695E90FFF27E25FFC4F99273327EE242B
:1004D000FF24A701E70105900894079428F4360F3C
:1004E000E71EF81E491F511D660F771F881F991FB1
:1004F0000694A1F70590079428F4E70EF81E491F0B
:10050000561FC11D770F881F991F661F0694A1F7FC
:100510000590079428F4F80E491F561FC71FD11DD8
:10052000880F991F661F771F0694A1F705900794FF
:1005300020F4490F561FC71FD81F990F661F771F3A
:10054000881F0694A9F784911095177041F0D695ED
:10055000C79557954795F794E7941A95C1F7E4EB3B
:10056000F2E06894159015913591659195910590FB
:100570007FE27395E118F10A430B560BC90BD009C2
:10058000C0F7E10CF11E431F561FC91FD01D7EF49A
:10059000703311F48A95E6CFE894015030F0080FDB
:1005A0000AF40027021708F4202F2395022F7A332C
:1005B00028F079E37D932A95E9F710C07D932A9579
:1005C00089F6069497956795379517951794E118CE
:1005D000F10A430B560BC90BD00998F023957E9175
:1005E00073957A3308F070E37C932013B8F77E910B
:1005F00070617D9330F0839571E37D9370E32A956C
:10060000E1F71124EF90FF900F911F91CF91DF91AF
:10061000992787FD90950895FA01AA27283051F16E
:10062000203181F1E8946F936E7F6E5F7F4F8F4F23
:100630009F4FAF4FB1E03ED0B4E03CD0670F781F82
:10064000891F9A1FA11D680F791F8A1F911DA11D67
:100650006A0F711D811D911DA11D20D009F46894A0
:100660003F912AE0269F11243019305D3193DEF648
:10067000CF010895462F4770405D4193B3E00FD0FE
:10068000C9F7F6CF462F4F70405D4A3318F0495DE9
:1006900031FD4052419302D0A9F7EACFB4E0A695CC
:1006A0009795879577956795BA95C9F700976105EE
:1006B000710508959B01AC010A2E06945795479544
:1006C00037952795BA95C9F7620F731F841F951F39
:1006D000A01D0895CF93DF93BC018230910510F4E3
:1006E00062E070E0A0914306B0914406ED01E0E0C5
:1006F000F0E040E050E021C088819981861797079B
:1007000069F48A819B81309719F09383828304C0B6
:100710009093440680934306FE0134C0681779071E
:1007200038F44115510519F08417950708F4AC0108
:10073000FE018A819B819C01E9012097E9F6411520
:100740005105A9F1CA01861B970B049708F4BA0159
:10075000E0E0F0E02AC08D919C91119784179507F5
:10076000F9F46417750781F412968D919C91139793
:10077000309719F09383828304C09093440680934A
:100780004306FD0132964CC0CA01861B970BFD0142
:10079000E80FF91F6193719302978D939C9340C06A
:1007A000FD01828193819C01D9011097A1F680916E
:1007B000410690914206892B41F48091B8029091B4
:1007C000B90290934206809341064091BA0250913B
:1007D000BB024115510541F44DB75EB78091B60299
:1007E0009091B702481B590B209141063091420667
:1007F000CA01821B930B8617970780F0AB014E5FEF
:100800005F4F8417950750F0420F531F50934206D5
:1008100040934106F9016193719302C0E0E0F0E07A
:10082000CF01DF91CF910895CF93DF93009709F423
:1008300050C0EC0122971B821A82A0914306B0910E
:100840004406109709F140E050E0AC17BD0708F1ED
:10085000BB83AA83FE0121913191E20FF31FAE17F2
:10086000BF0779F48D919C911197280F391F2E5F46
:100870003F4F3983288312968D919C9113979B83C8
:100880008A834115510571F4D0934406C093430601
:1008900020C012968D919C911397AD01009711F095
:1008A000DC01D3CFFA01D383C28321913191E20FCE
:1008B000F31FCE17DF0769F488819981280F391F4C
:1008C0002E5F3F4FFA01318320838A819B8193837E
:1008D0008283DF91CF910895FC01059061507040B3
:1008E0000110D8F7809590958E0F9F1F0895FC01F9
:1008F0006150704001900110D8F7809590958E0F4F
:100900009F1F0895FC011382128288EE93E0A0E0FD
:10091000B0E084839583A683B7838AED92E09183C8
:1009200080830895FC018089803419F421E030E04F
:1009300002C020E030E0C9010895FC01818990E007
:100940000895FC016487458766874787089580E09E
:1009500090E0089580E090E0089580E090E00895B0
:100960000895EF92FF921F93CF93DF93162F7A0192
:1009700086E060E00E941B3481E296E060E00E9425
:10098000622B81E296E060E00E94622B81E296E0B9
:1009900069E00E94622B81E296E0612F0E94622B47
:1009A000C0E0D0E0F701EC0FFD1F108181E296E07E
:1009B0006AE00E94622B81E296E06C2F0E94622B1B
:1009C00081E296E06BE00E94622B81E296E0612F6B
:1009D0000E94622B2196C633D10521F781E296E071
:1009E00068E00E94622B81E296E060EA0E94622B3E
:1009F00081E296E060EA0E94622B85FDF9CF81E2F8
:100A000096E060E00E94622B81E296E06CE00E943A
:100A1000622B86E061E00E941B34DF91CF911F9131
:100A2000FF90EF9008951F93CF93DF93EC01162F63
:100A300086E060E00E941B3481E296E060E00E9464
:100A4000622B112319F0113059F404C081E296E0B1
:100A5000688904C068896C6181E296E00E94622B1B
:100A600086E061E00E941B34DF91CF911F910895D1
:100A7000EF92FF920F931F938EE1489F7001112414
:100A8000E60EF11C86E060E00E941B3401E216E0F5
:100A9000C80165E00E94622BC8016F2D0E94622B85
:100AA000C80166E00E94622BC8016E2D0E94622B75
:100AB0001F910F91FF90EF900895EF92FF920F9387
:100AC0001F937C0101E216E0C80167E00E94622BDF
:100AD000C8016FEF0E94622B86E061E00E941B3428
:100AE000F70187858F5F87871F910F91FF90EF90A8
:100AF0000895EF92FF920F931F93FC01E7848EE11C
:100B0000E89E700111248685E80EF11C86E060E005
:100B10000E941B3401E216E0C80164E00E94622BCF
:100B2000C80163E00E94622BC80165E00E94622B4D
:100B3000C8016F2D0E94622BC80166E00E94622BE3
:100B4000C8016E2D0E94622B1F910F91FF90EF90B4
:100B500008951F93CF93DF93EC01162F6C3731F478
:100B60000E945D05CE010E9479050AC081E296E0EF
:100B700067E00E94622B81E296E0612F0E94622B67
:100B800081E090E0DF91CF911F9108950F931F9323
:100B900086E060E00E941B3401E216E0C80164E0D8
:100BA0000E94622BC80164E00E94622B86E061E033
:100BB0000E941B341F910F9108951F93CF93DF93D1
:100BC000EC01188A16E0198B83E396E060E973E084
:100BD0000E944832813049F480E4888B88E0898B18
:100BE00086E060E00E941B3402C0188A198B86E000
:100BF00060E00E941B34DF91CF911F9108951F93F5
:100C0000CF93DF93EC0186E061E00E94DC3382E069
:100C100060E00E94DC3382E061E00E941B34CE0180
:100C20000E94DD0586E060E00E941B3481E296E0D0
:100C30006CEE0E94622B81E296E06FEF0E94622BC5
:100C4000182F81E296E060E00E94622B6889626062
:100C500081E296E00E94622B62E370E080E090E027
:100C60000E943E3381E296E06CE60E94622B1F7E7A
:100C700081E296E0612F0E94622B1092370410925D
:100C8000360417C06091360470913704605F81E2CA
:100C900096E00E94622B81E296E060E00E94622B67
:100CA0008091360490913704019690933704809395
:100CB000360480913604909137040C971CF3CE01D2
:100CC00061E00E941305DF91CF911F910895CF92AB
:100CD000DF92EF92FF920F931F93CF93DF938C01DC
:100CE0006B017A01C0E0D0E01CC0F601EC0FFD1FE3
:100CF00060810115110521F00130110589F405C04D
:100D0000E0913406F091350604C0E0913606F0918A
:100D10003706A081B1812D913C91CF01F901099550
:100D20002196CE15DF0508F3DF91CF911F910F912A
:100D3000FF90EF90DF90CF9008951F920F920FB623
:100D40000F9211242F933F934F938F939F93EF9381
:100D5000FF934091C60020912206309123062F5F19
:100D60003F4F8091260690912706282339238091B2
:100D70002406909125062817390779F080912206DC
:100D800090912306E0912806F0912906E80FF91FBB
:100D900040833093230620932206FF91EF919F9189
:100DA0008F914F913F912F910F900FBE0F901F90F9
:100DB00018951F920F920FB60F9211242F933F9305
:100DC0008F939F93EF93FF9320912C0630912D06E4
:100DD00080912A0690912B0628173907E9F0809117
:100DE0002C0690912D06E0913006F0913106E80F27
:100DF000F91F80818093C60080912C0690912D066A
:100E0000019620912E0630912F06822393239093F2
:100E10002D0680932C0610C020912A0630912B06B7
:100E200080912C0690912D062817390729F480917E
:100E3000C1008F7D8093C100FF91EF919F918F91B1
:100E40003F912F910F900FBE0F901F9018952F92EA
:100E50003F924F925F926F927F928F929F92AF924A
:100E6000BF92CF92DF92EF92FF920F931F93DF9387
:100E7000CF93CDB7DEB72E970FB6F894DEBF0FBE77
:100E8000CDBF04EF13E068EEE62E63E0F62E53E0EC
:100E9000C52ED12CCC0EDD1E42E4242E3AE0432E8A
:100EA000512C4C0E5D1E2FE0622E712C6C0E7D1E9F
:100EB00099E0892E912C8C0E9D1E84E9382E5E01BE
:100EC0000894A11CB11C20918A0530918B05F80172
:100ED0004081F701808191819C838B832D833E83A8
:100EE0004F83F1E0F8878EEF898796E09A8790919B
:100EF0000F069B878091D0028C878091D1028D87CD
:100F00002E869F5F90930F066FEF7FEFF2011CC05C
:100F100021912627822F8295807F822790E0382F8B
:100F20002227AC01A3E0440F551FAA95E1F724271F
:100F30003527672F772762277327A4E09595879534
:100F4000AA95E1F768277927E615F70509F7F6016D
:100F50001AC081918627282F2295207F282730E0EC
:100F6000722F6627C90143E0880F991F4A95E1F760
:100F7000682779276A277B27B4E035952795BA95A6
:100F8000E1F762277327A72FBB27E815F90509F7B3
:100F9000862F8325282F2295207F282730E0922F27
:100FA0008827A90163E0440F551F6A95E1F784275C
:100FB00095278A279B2744E0359527954A95E1F7A1
:100FC0008227932789839A8380E090E0BF0146E0DF
:100FD00050E00E94670680E090E0B60146E050E0F5
:100FE0000E94670680E090E0B50142E050E00E9478
:100FF00067060F5F1F4FE2E0F0E0EE0EFF1EF3E02A
:101000000A3F1F0709F05FCF2E960FB6F894DEBF98
:101010000FBECDBFCF91DF911F910F91FF90EF9049
:10102000DF90CF90BF90AF909F908F907F906F9008
:101030005F904F903F902F9008958F92AF92CF92F4
:10104000EF92FF920F931F9384EB94E060E045ECE6
:1010500050E024EC30E000EC10E0F1ECEF2EF12C4D
:10106000CC24C394E8E9AE2E70E2872E0E94B82B00
:1010700081ED94E00E9482041092E4041092E50451
:101080001092E6041092E7041092E8041092E9042A
:101090001092EA041092EB041092ED041092EC040A
:1010A0001092E3041F910F91FF90EF90CF90AF90BB
:1010B0008F90089583E396E06AE773E00E944832D8
:1010C0008823E9F486E696E6A6E6B0E48093EE048B
:1010D0009093EF04A093F004B093F10480E090E0CB
:1010E000A0E8BFE38093F2049093F304A093F40488
:1010F000B093F50481E88093F6048DE81CC082E586
:1011000098EBAEE0B0E48093EE049093EF04A093EC
:10111000F004B093F10485E89BEEA1E5B0E4809380
:10112000F2049093F304A093F404B093F5048BEFCE
:101130008093F60486E68093F7040895BC0183E368
:1011400096E00E94483208951F93282F362F142FBF
:1011500081ED94E0622F432F0E9438051530F9F09D
:10116000163060F41230A9F0133018F4113001F584
:101170000EC0133081F01430D9F40FC0173099F03D
:10118000173078F0183089F0193091F410C026E04B
:101190000FC027E00DC028E00BC029E009C02AE0FD
:1011A00007C02BE005C02CE003C02DE001C02EE0FD
:1011B00000D000D000D0EDB7FEB7319681ED94E0BD
:1011C000ADB7BEB712969C938E93119780E091E0D5
:1011D00093838283822F992787FD909595838483BB
:1011E0000E94972B8DB79EB706960FB6F8949EBFB8
:1011F0000FBE8DBF1F910895EF92FF920F931F9323
:10120000CF93DF93E82FF0E0E131F10558F4EC5C87
:10121000FF4FEE0FFF1F0590F491E02D099490E928
:1012200081E92FC090E080E02CC092E983E929C0D9
:1012300094E985E926C096E987E923C098E989E918
:1012400020C09AE98BE91DC09CE98DE91AC09EE98E
:101250008FE917C090EA81EA14C092EA83EA11C0CC
:1012600094EA85EA0EC096EA87EA0BC098EA89EA12
:1012700008C09AEA8BEA05C09CEA8DEA02C09EEAA1
:101280008FEA21ED34E0C92FDD27C7FDD095E82E88
:10129000FF24E7FCF094613009F04AC08DB79EB797
:1012A00040970FB6F8949EBF0FBE8DBF0DB71EB707
:1012B0000F5F1F4FADB7BEB712963C932E93119799
:1012C00083E091E0F801938382838CEF90E0958333
:1012D00084836091FA047091FB048091FC049091E6
:1012E000FD042091EE043091EF044091F004509100
:1012F000F1040E944437D80116966D937D938D9327
:101300009C9319978091F6041A968C931A971B96C2
:101310001C921B971D96DC93CE931C971F96FC92F4
:10132000EE921E970E94972BEDB7FEB770961EC0E7
:101330008DB79EB708970FB6F8949EBF0FBE8DBFAE
:10134000EDB7FEB73196ADB7BEB712963C932E936C
:10135000119782E191E093838283D583C483F782DE
:10136000E6820E94972BEDB7FEB738960FB6F89439
:10137000FEBF0FBEEDBFDF91CF911F910F91FF9088
:10138000EF9008952F923F924F925F926F927F92CB
:101390008F929F92AF92BF92CF92DF92EF92FF9285
:1013A0000F931F93DF93CF93CDB7DEB76C970FB634
:1013B000F894DEBF0FBECDBF8B8F6C8F8091F80489
:1013C000682F772767FD70959B0177FF04C0222760
:1013D0003327261B370B2A35310589F48AE590E03F
:1013E0000E946A38882777FD8095982F0E941136D1
:1013F00021EE3AEF43EB52E40E94443708C0682FD5
:10140000772767FD7095872F972F0E94113625E368
:101410003AEF4EE85CEB0E944437962EE72E8C01A3
:101420008091F904682F772767FD70959B0177FFFE
:1014300004C022273327261B370B2A35310589F4B0
:101440008AE590E00E946A38882777FD8095982F7A
:101450000E94113621EE3AEF43EB52E40E944437EA
:1014600008C0682F772767FD7095872F972F0E94F8
:10147000113625E33AEF4EE85CE30E9444375B0106
:101480006C01292D3E2DB901C8010E94183820E0B9
:1014900030E044E352E40E9444370E94A7370E94A0
:1014A000DE357B018C01B501C6010E9418381B0195
:1014B0002C015E010894A11CB11CBA8EA98E1EEBF2
:1014C000C12E1FEFD12E3701882477FC8094982CF1
:1014D000B601882777FD8095982F0E9411369B01D1
:1014E000AC01C201B1010E9444377B018C01C401EF
:1014F000B3010E9411369B01AC01C801B7010E94E3
:10150000A93420E030E044E352E40E94A93420E012
:1015100030E040E85FE30E94A8340E94DE35E98DA8
:10152000FA8D61937193FA8FE98F4CE050E0C40E0D
:10153000D51E5EE4C516D10459F6EB8CBEEE8B2E9B
:10154000BFEF9B2EA9E1CA2ED12CCC0EDD1EF501DA
:1015500020813181C90101978935910568F56EEEC9
:101560007FEF0E946A388B010B5F1F4F2B55304075
:10157000089DC001099D900D189D900D1124A90191
:10158000481B590BCA0162E070E00E946A38882744
:1015900077FD8095982F0E9411360E94A7370E94F0
:1015A000DE35AB01672B11F441E050E06C8D600F2C
:1015B00061508E2D0E94A40882E090E0A80EB91E12
:1015C000E394AC14BD0419F66C960FB6F894DEBF24
:1015D0000FBECDBFCF91DF911F910F91FF90EF9084
:1015E000DF90CF90BF90AF909F908F907F906F9043
:1015F0005F904F903F902F900895609106057091F5
:101600000705809108059091090520E030E040E150
:1016100052E40E94443720E030E044EB53E40E945F
:1016200076350E94A7370E94DE359B012550304059
:1016300037FF03C09B01215E3F4FACE0B5E0F901ED
:10164000E650FC4F80818C932F5F3F4F2432310551
:1016500014F020E030E0119685E0A731B80779F763
:101660001C9208950F931F93282F462F81ED94E02D
:10167000622F0E94A10481ED94E00E94790527E188
:1016800031E08091FE04823041F58091FF0488238F
:10169000A1F1813019F42DE131E04FC0823019F40D
:1016A00022E231E04AC08330B9F1843009F443C00A
:1016B0008530E1F18630A9F18730D1F0883019F416
:1016C00020E431E03AC0893019F425E431E035C036
:1016D0008A3099F52AE431E030C0813071F580918B
:1016E000FF04882319F42FE431E027C0813019F476
:1016F0002BE331E022C0823019F428E131E01DC033
:10170000853019F424E531E018C0863019F429E554
:1017100031E013C08A3019F427E231E00EC08B307B
:1017200019F426E331E009C08C3019F421E331E0EB
:1017300004C08F3011F42CE231E08DB79EB70897CA
:101740000FB6F8949EBF0FBE8DBFEDB7FEB73196B2
:1017500001ED14E0ADB7BEB712961C930E9311972E
:101760008EE591E09383828380EE90E0958384837D
:10177000378326830E94972B8DB79EB708960FB6A6
:10178000F8949EBF0FBE8DBFC8010E945D051F91DA
:101790000F9108950F931F93282F462F01ED14E00A
:1017A000C801622F0E94A104C8010E94790580919E
:1017B000000560E00E94FC08C8010E945D051F91C1
:1017C0000F910895EF92FF920F931F93282F462FAA
:1017D00001EDE02E04E0F02EC701622F0E94A1046B
:1017E000C7010E9479058DB79EB740970FB6F89450
:1017F0009EBF0FBE8DBF0DB71EB70F5F1F4FEDB75A
:10180000FEB7F282E18283E691E0F801938382835E
:1018100087E590E095838483809101058683178214
:1018200011861086609102057091030580E090E0BA
:101830000E940F362091F2043091F3044091F40499
:101840005091F5040E944437F801628773878487BA
:1018500095878091F704868717860E94972B8DB70E
:101860009EB740960FB6F8949EBF0FBE8DBFC701BE
:101870000E945D051F910F91FF90EF900895282F12
:10188000462F81ED94E0622F0E94A10481ED94E047
:101890000E9479056091040570910505882777FD00
:1018A0008095982F0E9411362091060530910705EA
:1018B00040910805509109050E94A83420E030E0CD
:1018C00044EB53E40E94763520E030E040E851E4F8
:1018D0000E9444370E94A73720E030E040E85FE3F1
:1018E0000E94A9340E94DE35862F60930A0567FFA7
:1018F00003C0805F80930A0580910A0560E00E9422
:10190000FC0881ED94E00E945D0508950F931F93FC
:10191000282F462F01ED14E0C801622F0E94A10478
:10192000C8010E9479058DB79EB70C970FB6F89441
:101930009EBF0FBE8DBFEDB7FEB73196ADB7BEB738
:1019400012961C930E93119782E791E09383828302
:101950008CE791E09583848380ED90E09783868384
:101960008CE095E09187808781ED90E09387828776
:101970000E94972B8DB79EB70C960FB6F8949EBF1A
:101980000FBE8DBFC8010E945D051F910F91089584
:101990000F931F93282F462F01ED14E0C801622FEB
:1019A0000E94A104C8010E9479058DB79EB70A97CD
:1019B0000FB6F8949EBF0FBE8DBFEDB7FEB7319640
:1019C000ADB7BEB712961C930E9311978AE891E0BB
:1019D000938382838091060590910705A091080565
:1019E000B091090584839583A683B78380EB90E04B
:1019F000918780870E94972B8DB79EB70A960FB666
:101A0000F8949EBF0FBE8DBFC8010E945D051F9157
:101A10000F9108950F931F93282F462F01ED14E087
:101A2000C801622F0E94A104C8010E9479058DB7E8
:101A30009EB740970FB6F8949EBF0FBE8DBFEDB70F
:101A4000FEB73196ADB7BEB712961C930E931197A1
:101A500082E991E09383828383E890E09583848395
:101A60008091180590911905A0911A05B0911B0558
:101A700086839783A087B18784E890E093878287E5
:101A800080911C0590911D05A0911E05B0911F0528
:101A900084879587A687B7870E94972B8DB79EB7B7
:101AA00040960FB6F8949EBF0FBE8DBFC8010E942E
:101AB0005D051F910F9108950F931F93282F462FB7
:101AC00001ED14E0C801622F0E94A104C8010E9428
:101AD00079058DB79EB708970FB6F8949EBF0FBED5
:101AE0008DBFEDB7FEB73196ADB7BEB712961C935A
:101AF0000E93119784EA91E0938382838FE090E0C4
:101B00009583848380912005868317820E94972B7A
:101B10008DB79EB708960FB6F8949EBF0FBE8DBFC7
:101B2000C8010E945D051F910F9108950F931F93A7
:101B3000282F462F81ED94E0622F0E94A10481EDB1
:101B400094E00E94790580912105823018F42AEAF8
:101B500031E005C08250823010F42DEA31E000D02F
:101B600000D000D0EDB7FEB7319601ED14E0ADB76F
:101B7000BEB712961C930E93119780EB91E093835E
:101B80008283358324830E94972B8DB79EB7069658
:101B90000FB6F8949EBF0FBE8DBFC8010E945D05B1
:101BA0001F910F9108950F931F93282F462F01ED3A
:101BB00014E0C801622F0E94A104C8010E947905A7
:101BC0008DB79EB70C970FB6F8949EBF0FBE8DBF12
:101BD000EDB7FEB73196ADB7BEB712961C930E9314
:101BE000119783EB91E09383828382EE90E095835B
:101BF00084838091220590912305A0912405B091C2
:101C0000250586839783A087B1878EE890E0938728
:101C100082870E94972B8DB79EB70C960FB6F894CB
:101C20009EBF0FBE8DBFC8010E945D051F910F9121
:101C300008950F931F93282F462F01ED14E0C8013C
:101C4000622F0E94A104C8010E9479058DB79EB73A
:101C50000A970FB6F8949EBF0FBE8DBFEDB7FEB7C3
:101C60003196ADB7BEB712961C930E9311978DEBBC
:101C700091E0938382838091F904992787FD909561
:101C80009583848380EB90E09783868382EB90E05A
:101C9000918780870E94972B8DB79EB70A960FB6C3
:101CA000F8949EBF0FBE8DBFC8010E945D051F91B5
:101CB0000F9108950F931F93282F462F01ED14E0E5
:101CC000C801622F0E94A104C8010E9479058DB746
:101CD0009EB70A970FB6F8949EBF0FBE8DBFEDB7A3
:101CE000FEB73196ADB7BEB712961C930E931197FF
:101CF0008DEB91E0938382838091F804992787FD8F
:101D000090959583848380EB90E09783868381EB25
:101D100090E0918780870E94972B8DB79EB70A9697
:101D20000FB6F8949EBF0FBE8DBFC8010E945D051F
:101D30001F910F910895EF92FF920F931F93282FF9
:101D4000462F81EDE82E84E0F82EC701622F0E9415
:101D5000A104C7010E9479058DB79EB70C970FB6F5
:101D6000F8949EBF0FBE8DBF0DB71EB70F5F1F4FFC
:101D7000EDB7FEB7F282E18285EC91E0F801938342
:101D800082838FE190E09583848360912605709132
:101D9000270580912805909129050E9411362091F0
:101DA000F2043091F3044091F4045091F5040E9440
:101DB0004437F80166837783808791878091F704A1
:101DC000828713860E94972B8DB79EB70C960FB60D
:101DD000F8949EBF0FBE8DBFC7010E945D051F9185
:101DE0000F91FF90EF9008950F931F93282F462F88
:101DF00001ED14E0C801622F0E94A104C8010E94F5
:101E000079058DB79EB70A970FB6F8949EBF0FBE9F
:101E10008DBFEDB7FEB73196ADB7BEB712961C9326
:101E20000E9311978FEC91E09383828389EB90E07E
:101E30009583848380912A05992787FD90959783C0
:101E4000868385E290E0918780870E94972B8DB7EB
:101E50009EB70A960FB6F8949EBF0FBE8DBFC801FD
:101E60000E945D051F910F9108950F931F93282FD6
:101E7000462F01ED14E0C801622F0E94A104C801A1
:101E80000E9479058DB79EB70A970FB6F8949EBF4A
:101E90000FBE8DBFEDB7FEB73196ADB7BEB7129688
:101EA0001C930E9311978FEC91E09383828387E8C4
:101EB00090E09583848380912B0590912C059783E6
:101EC000868385E290E0918780870E94972B8DB76B
:101ED0009EB70A960FB6F8949EBF0FBE8DBFC8017D
:101EE0000E945D051F910F910895EF92FF920F934D
:101EF0001F93282F462F91EDE92E94E0F92EC7016C
:101F0000622F0E94A104C7010E9479058DB79EB778
:101F10000C970FB6F8949EBF0FBE8DBF0DB71EB7BE
:101F20000F5F1F4FEDB7FEB7F282E18289ED91E0BE
:101F3000F8019383828388EE90E095838483609197
:101F4000C0027091C1028091C2029091C30220919F
:101F5000EE043091EF044091F0045091F1040E949E
:101F60004437F80166837783808791878091F604F0
:101F7000828713860E94972B8DB79EB70C960FB65B
:101F8000F8949EBF0FBE8DBFC7010E945D051F91D3
:101F90000F91FF90EF900895EF92FF920F931F9390
:101FA000282F462F31EDE32E34E0F32EC701622FA8
:101FB0000E94A104C7010E9479058DB79EB70C97B6
:101FC0000FB6F8949EBF0FBE8DBF0DB71EB70F5F43
:101FD0001F4FEDB7FEB7F282E18289ED91E0F80183
:101FE0009383828389EE90E095838483609140059A
:101FF0007091410580914205909143052091EE0436
:102000003091EF044091F0045091F1040E94443764
:10201000F80166837783808791878091F6048287B1
:1020200013860E94972B8DB79EB70C960FB6F89427
:102030009EBF0FBE8DBFC7010E945D051F910F910E
:10204000FF90EF900895EF92FF920F931F93282F28
:10205000462F51EDE52E54E0F52EC701622F0E9468
:10206000A104C7010E9479058DB79EB70C970FB6E2
:10207000F8949EBF0FBE8DBF0DB71EB70F5F1F4FE9
:10208000EDB7FEB7F282E18285EC91E0F80193832F
:10209000828387EE90E095838483609144057091FC
:1020A000450580914605909147052091480530915E
:1020B000490540914A0550914B050E94A834209152
:1020C000F2043091F3044091F4045091F5040E941D
:1020D0004437F80166837783808791878091F7047E
:1020E000828713860E94972B8DB79EB70C960FB6EA
:1020F000F8949EBF0FBE8DBFC7010E945D051F9162
:102100000F91FF90EF9008950F931F93282F462F64
:1021100001ED14E0C801622F0E94A104C8010E94D1
:1021200079058DB79EB70C970FB6F8949EBF0FBE7A
:102130008DBFEDB7FEB73196ADB7BEB712961C9303
:102140000E93119789ED91E09383828386E190E06D
:102150009583848380914C0590914D05A0914E0507
:10216000B0914F0586839783A087B18788E890E078
:10217000938782870E94972B8DB79EB70C960FB6D8
:10218000F8949EBF0FBE8DBFC8010E945D051F91D0
:102190000F910895EF92FF920F931F93282F462FD0
:1021A00061EDE62E64E0F62EC701622F0E94A104C5
:1021B000C7010E9479058DB79EB70C970FB6F894AA
:1021C0009EBF0FBE8DBF0DB71EB70F5F1F4FEDB780
:1021D000FEB7F282E18285EC91E0F801938382837D
:1021E00086EE90E095838483609144057091450567
:1021F00080914605909147052091F2043091F304B7
:102200004091F4045091F5040E944437F80166832C
:102210007783808791878091F704828713860E9455
:10222000972B8DB79EB70C960FB6F8949EBF0FBE36
:102230008DBFC7010E945D051F910F91FF90EF9028
:102240000895EF92FF920F931F93282F462F71ED61
:10225000E72E74E0F72EC701622F0E94A104C70188
:102260000E9479058DB79EB70C970FB6F8949EBF64
:102270000FBE8DBF0DB71EB70F5F1F4FEDB7FEB777
:10228000F282E18283EB91E0F8019383828384EE12
:1022900090E0958384836091500570915105882763
:1022A00077FD8095982F0E9411362AE037ED43E2A2
:1022B0005CE30E944437F8016683778380879187C7
:1022C0008FE890E0938782870E94972B8DB79EB707
:1022D0000C960FB6F8949EBF0FBE8DBFC7010E942B
:1022E0005D051F910F91FF90EF900895AF92BF92FF
:1022F000CF92DF92EF92FF920F931F93282F462FDA
:1023000011EDA12E14E0B12EC501622F0E94A1048F
:10231000C5010E9479058DB79EB7865490400FB6CF
:10232000F8949EBF0FBE8DBF0DB71EB70F5F1F4F36
:10233000EDB7FEB7B282A18283EE91E0F8019383FC
:1023400082832EE430E03583248382E590E0978316
:1023500086838091520590915305A0915405B091C8
:10236000550580879187A287B38740EB50E055875A
:1023700044873787268780E590E0918B808B80911A
:10238000560590915705A0915805B0915905828B3B
:10239000938BA48BB58B578B468B318F208F88E422
:1023A00090E0938F828F80915A0590915B05958F75
:1023B000848F578F468F84E590E091A380A382E4B9
:1023C00090E093A382A3809104059091050595A3C5
:1023D00084A357A346A3B1E4CB2ED12CD1A6C0A68B
:1023E000A5E4EA2EF12CF3A6E2A660915C057091BB
:1023F0005D0580915E0590915F052091F20430911A
:10240000F3044091F4045091F5040E944437F8011C
:1024100064A775A786A797A78091F70480AB11AA38
:1024200088E590E093AB82ABF5AAE4AA80916005C1
:1024300090916105A0916205B091630586AB97AB61
:10244000A0AFB1AF8DE690E093AF82AFD5AEC4AE92
:10245000F7AEE6AE60916405709165058091660502
:102460009091670520E030E048EC52E40E94763518
:102470002091EE043091EF044091F0045091F1046A
:102480000E944437005C1F4FF80161937193819360
:1024900091938091F604808311820E94972B8DB7CF
:1024A0009EB78A5B9F4F0FB6F8949EBF0FBE8DBF3D
:1024B000C5010E945D051F910F91FF90EF90DF9085
:1024C000CF90BF90AF900895282F462F81ED94E0D4
:1024D000622F0E94A10481ED94E00E947905609131
:1024E0007305709174058091750590917605209122
:1024F00006053091070540910805509109050E9495
:10250000A83420E030E044EB53E40E94763520E02C
:1025100030E040E851E40E9444370E94A73720E0B1
:1025200030E040E85FE30E94A9340E94DE35862F48
:102530006093770567FF03C0805F80937705809184
:10254000770561E00E94FC0881ED94E00E945D0542
:102550000895CF92DF92EF92FF920F931F93282F4F
:10256000462F81ED94E0622F0E94A10481ED94E05A
:102570000E94790580918005282F30E03093C502B4
:102580002093C40280913D05882359F5009181056F
:1025900010E0201B310BB901882777FD8095982F1B
:1025A0000E9411366B017C016091820570E0601B16
:1025B000710B882777FD8095982F0E9411369B011B
:1025C000AC01C701B6010E94763520E030E048EC4E
:1025D00052E40E9444370E94DE357093C502609336
:1025E000C4028091C4029091C5028D599F4F34F46A
:1025F0008DE99FEF9093C5028093C4028DB79EB77B
:102600000A970FB6F8949EBF0FBE8DBFEDB7FEB709
:10261000319601ED14E0ADB7BEB712961C930E9340
:10262000119787E392E09383828381EE90E0958314
:1026300084838091C4029091C5029783868385E24A
:1026400090E0918780870E94972B8DB79EB70A965E
:102650000FB6F8949EBF0FBE8DBFC8010E945D05E6
:102660001F910F91FF90EF90DF90CF900895CF933F
:10267000DF93282F462FC1EDD4E0CE01622F0E94B8
:10268000A104CE010E94790580910B05813079F477
:1026900000D000D0EDB7FEB7D283C1838BEF90E0BE
:1026A000948383830E94862B10920B050CC000D06C
:1026B00000D0EDB7FEB7D283C18388EF90E094835A
:1026C00083830E94862B0F900F900F900F9081EDC7
:1026D00094E00E945D05DF91CF9108950F931F93C1
:1026E000282F462F01ED14E0C801622F0E94A1049B
:1026F000C8010E94790500D000D0EDB7FEB7128363
:1027000001838EEF90E0948383830E94862B0F9049
:102710000F900F900F90C8010E945D051F910F91BF
:1027200008950F931F9301ED14E0C80167E044E0A2
:102730000E94A104C8010E94790500D000D0EDB725
:10274000FEB71283018385E391E0948383830E9423
:10275000862B0F900F900F900F90C8010E945D057F
:102760001F910F910895EF92FF920F931F93F82EF0
:10277000E62E0E94911301ED14E0C8016F2D4E2D3D
:102780000E94A104C8010E94790500D000D0EDB7D5
:10279000FEB71283018383E191E0948383830E94D7
:1027A000862B0F900F900F900F90C8010E945D052F
:1027B0001F910F91FF90EF900895CF92DF92EF92CB
:1027C000FF920F931F937C01D62EC72E01ED14E0CC
:1027D000C8016E2D4D2D0E94A104C8010E947905EB
:1027E00000D000D0EDB7FEB7128301838DE991E0F0
:1027F000948383830E94862BEDB7FEB712830183F7
:102800008DE891E0948383830E94862BEDB7FEB719
:10281000128301838DE791E0948383830E94862B4A
:10282000EDB7FEB7128301838DE691E09483838335
:102830000E94862BEDB7FEB7128301838EE591E0EF
:10284000948383830E94862B0F900F900F900F909C
:10285000C8010E945D05C70101966D2D7C2D0E9467
:10286000C2091F910F91FF90EF90DF90CF900895D4
:102870000F931F93282F462F01ED14E0C801622FFC
:102880000E94A104C8010E94790500D000D0EDB7D4
:10289000FEB7128301838DEA91E0948383830E94C3
:1028A000862B0F900F900F900F90C8010E945D052E
:1028B0001F910F910895EF92FF920F931F93282F6E
:1028C000462F01EDE02E04E0F02EC701622F0E949A
:1028D000A104C7010E9479050E94303328EE33E03D
:1028E00040E050E00E947D38CA01B9010E940F36D5
:1028F0006093BC027093BD028093BE029093BF02AE
:102900000E94DE358B019C018DB79EB70C970FB6E8
:10291000F8949EBF0FBE8DBFEDB7FEB73196ADB731
:10292000BEB71296FC92EE9211978FE392E09383DA
:10293000828383EB90E095838483C8016CE370E02D
:102940000E946A38CB016CE370E00E946A3897837A
:1029500086838AE390E091878087C8016CE370E00A
:102960000E946A38938782870E94972B8DB79EB703
:102970000C960FB6F8949EBF0FBE8DBFC7010E9484
:102980005D051F910F91FF90EF9008952F923F9258
:102990004F925F926F927F928F929F92AF92BF926F
:1029A000CF92DF92EF92FF920F931F93DF93CF931B
:1029B000CDB7DEB76B970FB6F894DEBF0FBECDBFB5
:1029C000282F462F81ED94E0622F0E94A10481ED13
:1029D00094E00E9479050E94303320912D053091BA
:1029E0002E0540912F0550913005261737074807CF
:1029F000590708F09BC180913105882391F080939D
:102A000032051092310581E0809333050E94303306
:102A100060933405709335058093360590933705A0
:102A200021C10E9430336051774280409040209114
:102A300034053091350540913605509137052617FC
:102A400037074807590710F4109233058091320573
:102A5000E82EFF24FA82E982F0902105FD8690900D
:102A60003105A090C002B090C102C090C202D090C7
:102A7000C3024090EE045090EF046090F004709018
:102A8000F1042091380530E040913905609122052C
:102A900070912305809124059091250569877A8797
:102AA0008B879C8790913A0580912A05A82FBB2798
:102AB000A7FDB095B887AF8380913B05E82FF0E084
:102AC000FE83ED832090C4023090C50280913C05C6
:102AD000E82EFF24FC82EB8280903D0509811A815B
:102AE0001B8F0A8FE42EFF2400E010E0EE86FF86A5
:102AF000088B198B492F50E060E070E04A8B5B8BAC
:102B00006C8B7D8BB901882777FD8095982F6E8B14
:102B10007F8B888F998FA1C08A8D9B8D01969B8F0B
:102B20008A8F06972CF0A1E0B0E0BB8FAA8F1BC064
:102B3000EA8DFB8DE330F10509F441C0E430F10585
:102B40003CF4E130F10579F0329709F07FC012C012
:102B50000A8D1B8D0430110509F44AC0053011059A
:102B600009F074C065C01D85123008F06FC099244B
:102B700093946CC0C601B501A30192010E94443731
:102B80007B018C016E897F89888D998D0E94113619
:102B90009B01AC01C801B7010E946F3588230CF07E
:102BA00055C0C601B50129E23CE54FE85FE30E944C
:102BB000393718160CF04AC032E0932E47C0C601D0
:102BC000B501A30192010E9444377B018C016E85FF
:102BD0007F85888999890E940F369B01AC01C801C5
:102BE000B7010E94393718168CF523E0922E2EC0BB
:102BF0006A897B898C899D890E940F3620E030E0AC
:102C000040E251E40E9476359B01AC0169857A85EA
:102C10008B859C850E946F3587FD07C02F81388585
:102C20004D815E81241735078CF494E0992E0EC0F7
:102C30006B817C81261637064CF47DE927167FEFE1
:102C4000370621F0882011F485E0982E8A8D9B8D1F
:102C5000A981BA818A179B0719F0992009F45CCFE2
:102C6000909231050E94303368517C4F8F4F9F4FB7
:102C700060932D0570932E0580932F05909330055A
:102C800080913305813051F480913E05813021F4EB
:102C900081ED94E00E94C60510923E0580913F05AB
:102CA000882319F42BE432E023C08091310582306F
:102CB000A1F0833028F4882351F08130C9F40AC090
:102CC000843089F0843060F0853091F40FC028E5BD
:102CD00032E00EC025E632E00BC022E732E008C049
:102CE0002FE732E005C02CE832E002C029E932E0EB
:102CF00000D000D000D0EDB7FEB7319681ED94E062
:102D0000ADB7BEB712969C938E93119780EB91E06E
:102D100093838283358324830E94972BEDB7FEB77C
:102D200036960FB6F894FEBF0FBEEDBF81ED94E06E
:102D30000E945D056B960FB6F894DEBF0FBECDBF47
:102D4000CF91DF911F910F91FF90EF90DF90CF9087
:102D5000BF90AF909F908F907F906F905F904F90BB
:102D60003F902F900895EF92FF920F931F938091C1
:102D70006805843009F068C08091FE04813041F418
:102D80008091FF048B3009F438C1813051F435C192
:102D9000823009F032C18091FF048650823008F4FD
:102DA0002CC19091FF04809169058917A1F190933E
:102DB00069050E94303360936A0570936B058093B8
:102DC0006C0590936D05909169058091C6029817E6
:102DD00011F580913E05813091F0813018F08230FC
:102DE000B1F413C011E010933E050E9430336156D8
:102DF0007A4E8040904030F410936E0508C082E017
:102E000080933E0510926E0502C010923E0581ED42
:102E100094E00E94C6050E94303320916A053091EB
:102E20006B0540916C0550916D05621B730B840B13
:102E3000950B615D77408040904008F4DEC0809142
:102E4000FF048093C602D9C0853029F48091C7025F
:102E50009091C80214C0863029F48091C9029091E3
:102E6000CA020DC0873029F48091CB029091CC0228
:102E700006C0883041F48091CD029091CE029093AB
:102E8000700580936F058091710520916F053091D9
:102E90007005882309F04DC0B7E029303B07C8F022
:102EA0000E94303361567A4E8040904020F481E099
:102EB00080936E050CC080916E05813041F0809149
:102EC0003305813021F081ED94E00E94C60582E057
:102ED0002DC084E0203B380768F480913E058823AC
:102EE00049F010926E0581ED94E00E94C6051092A3
:102EF0003E0583C0205B34402955324008F07DC038
:102F000080917205863009F478C080913E05813049
:102F100009F473C080913305813009F46EC01092BA
:102F20006E0581ED94E00E94C60581E080933E0528
:102F300064C0215B344008F460C00E9430336156A5
:102F40007A4E8040904008F041C080916E058130FB
:102F5000E9F1E0906A05F0906B0500916C05109125
:102F60006D0588EE93E0A0E0B0E0E80EF91E0A1FC0
:102F70001B1F0E943033E616F70608071907E8F50D
:102F800081E080936E0517C010926E0581ED94E08C
:102F90000E94C60580913E05823019F410923E05CC
:102FA00003C08F5F80933E0580913E05823018F00C
:102FB00082E080933E050E94303360936A057093EF
:102FC0006B0580936C0590936D0517C0E0906A05C2
:102FD000F0906B0500916C0510916D0588EE93E003
:102FE000A0E0B0E0E80EF91E0A1F1B1F0E9430335C
:102FF000E616F7060807190738F21F910F91FF90A0
:10300000EF90089581ED94E00E94C6050E9491130F
:103010000E945A080895CF93DF93AC01E0917805A0
:10302000F091790520917A0530917B05C9018C5981
:103030009F4F8E179F0714F0EA0102C0EA01219703
:1030400024563040E217F3070CF42196842F90E0C9
:10305000C817D90749F080917205882329F083E3C6
:1030600096E04C2F0E944F32CE01DF91CF91089510
:10307000EF92FF920F931F930E94303320912D0502
:1030800030912E0540912F055091300526173707B6
:103090004807590708F03BC10E9430336C507E4FFF
:1030A0008F4F9F4F60932D0570932E0580932F05B2
:1030B0009093300581ED94E00E94C60581ED94E087
:1030C00065E047E00E94A10481ED94E00E9479054B
:1030D00080917A0590917B05892BB1F480917C05D4
:1030E00090917D05892B81F48091780590917905E7
:1030F00090937B0580937A0580917E0590917F0562
:1031000090937D0580937C0520917E0530917F050D
:1031100040917C0550917D05C90184569040481727
:10312000590724F4809172058F5F08C02C593F4FD6
:10313000241735072CF48091720581508093720515
:103140008091720587FF03C01092720505C083301D
:103150001CF082E08093720580917205813009F441
:1031600043C0823009F47DC0882309F0D0C000D06C
:1031700000D001ED14E0ADB7BEB712961C930E93CC
:1031800011978AED91E014969C938E9313970E9469
:10319000862B00D000D0EDB7FEB73196ADB7BEB7E5
:1031A00012961C930E93119786EA92E09383828382
:1031B00080913905848315828091F6048683178275
:1031C0000E94972BEDB7FEB738960FB6F894FEBF66
:1031D0000FBEEDBF8091390590E06CE773E00E946F
:1031E0000B188093390593C000D000D001ED14E096
:1031F000ADB7BEB712961C930E93119788EC91E071
:1032000014969C938E9313970E94862B00D000D027
:10321000EDB7FEB73196ADB7BEB712961C930E93BD
:10322000119786EA92E093838283809138058483A4
:1032300015828091F604868317820E94972BEDB742
:10324000FEB738960FB6F894FEBF0FBEEDBF809163
:10325000380590E06EE773E00E940B188093380504
:1032600056C000D000D041EDE42E44E0F42EADB7BE
:10327000BEB71296FC92EE92119787EB91E01496EE
:103280009C938E9313970E94862BEDB7FEB73897C9
:103290000FB6F894FEBF0FBEEDBF0DB71EB70F5FA0
:1032A0001F4FF282E1828EEA92E0D80113969C933E
:1032B0008E93129760913A0570E080E090E00E9452
:1032C0000F3620E030E040E251E40E947635F8010C
:1032D000648375838683978386E790E091878087F0
:1032E00080E290E0938782870E94972B8DB79EB7EC
:1032F0000C960FB6F8949EBF0FBE8DBF80913A0515
:1033000090E060E873E00E940B1880933A0581ED2D
:1033100094E00E945D051F910F91FF90EF9008953A
:10332000EF92FF920F931F930E9430330E940F364B
:103330007B018C01609183057091840580918505E6
:103340009091860520E030E849E055E40E94A934D8
:103350009B01AC01C801B7010E946F3588230CF0B6
:1033600084C280916805843010F00E94B316809169
:103370006E05882309F076C280913E05823009F4FB
:1033800064C2A82FB0E0FD01E25CFB4F808180FFAA
:103390000BC0FD01EE55FB4F6081A056BB4F8C91D9
:1033A00090E070E00E94C61480913E05A82FB0E026
:1033B000FD01E85CFB4F808180FF0BC0FD01EE5BEF
:1033C000FB4F6081A05CBB4F8C9190E070E00E944D
:1033D000381480913E05A82FB0E0FD01E85CFB4F5A
:1033E000808181FF0BC0FD01EA5BFB4F6081AC5B1C
:1033F000BB4F8C9190E070E00E945A0E80913E0588
:10340000A82FB0E0FD01E85CFB4F808182FF0BC07C
:10341000FD01E65BFB4F6081A85BBB4F8C9190E0A8
:1034200070E00E94190E80913E05A82FB0E0FD01CA
:10343000E85CFB4F808183FF0BC0FD01E25BFB4F2B
:103440006081A45BBB4F8C9190E070E00E94D30D33
:1034500080913E05A82FB0E0FD01E85CFB4F808124
:1034600085FF0BC0FD01EE5AFB4F6081A05BBB4F97
:103470008C9190E070E00E945C0D80913E05A82F39
:10348000B0E0FD01E85CFB4F808186FF0BC0FD01D1
:10349000EA5AFB4F6081AC5ABB4F8C9190E070E0D0
:1034A0000E94960D80913E05A82FB0E0FD01E85CDA
:1034B000FB4F808187FF0BC0FD01E65AFB4F608107
:1034C000A85ABB4F8C9190E070E00E940A0D809149
:1034D0003E05A82FB0E0FD01E85CFB4F808184FF32
:1034E0000BC0FD01E25AFB4F6081A45ABB4F8C9187
:1034F00090E070E00E94F40E80913E05A82FB0E0AD
:10350000FD01E65CFB4F808180FF0BC0FD01EE59A1
:10351000FB4F6081A05ABB4F8C9190E070E00E94FD
:10352000860C80913E05A82FB0E0FD01E65CFB4FC4
:10353000808181FF0BC0FD01EA59FB4F6081AC59CE
:10354000BB4F8C9190E070E00E94C80C80913E05CA
:10355000A82FB0E0FD01E65CFB4F808182FF0BC02D
:10356000FD01E659FB4F6081A859BB4F8C9190E05B
:1035700070E00E94371380918705813051F580916A
:103580003E05A82FB0E0FD01E65CFB4F808184FF83
:103590000BC0FD01EE58FB4F6081A059BB4F8C91D1
:1035A00090E070E00E949B0E80913E05A82FB0E055
:1035B000FD01E65CFB4F808183FF0BC0FD01E259FA
:1035C000FB4F6081A459BB4F8C9190E070E00E944A
:1035D000CA0B80913E05A82FB0E0FD01E65CFB4FD1
:1035E000808187FF0BC0FD01E258FB4F6081A4582A
:1035F000BB4F8C9190E070E00E945B1480913E057F
:10360000A82FB0E0FD01E65CFB4F808185FF0BC079
:10361000FD01EA58FB4F6081AC58BB4F8C9190E0A4
:1036200070E00E943F0C80913E05A82FB0E0FD01A4
:10363000E65CFB4F808186FF0BC0FD01E658FB4F27
:103640006081A858BB4F8C9190E070E00E94E20B23
:1036500080913E05A82FB0E0FD01E45CFB4F808126
:1036600082FF0BC0FD01EA57FB4F6081AC57BB4F97
:103670008C9190E070E00E94CA1080913E05A82FC6
:10368000B0E0FD01E45CFB4F808187FF0BC0FD01D2
:10369000E657FB4F6081A857BB4F8C9190E070E0DC
:1036A0000E94231080913E05A82FB0E0FD01E45C4C
:1036B000FB4F808183FF0BC0FD01E257FB4F608110
:1036C000A457BB4F8C9190E070E00E94CC0F80918A
:1036D0003E05A82FB0E0FD01E45CFB4F808181FF37
:1036E0000BC0FD01EE56FB4F6081A057BB4F8C9184
:1036F00090E070E00E94750F80913E05A82FB0E029
:10370000FD01E45CFB4F808184FF0BC0FD01EA56A4
:10371000FB4F6081AC56BB4F8C9190E070E00E94F3
:10372000350F80913E05A82FB0E0FD01E45CFB4F12
:10373000808185FF0BC0FD01E656FB4F6081A856D6
:10374000BB4F8C9190E070E00E94320B80913E055F
:10375000A82FB0E0FD01E45CFB4F808186FF0BC029
:10376000FD01E256FB4F6081A456BB4F8C9190E067
:1037700070E00E94DD1380913E05A82FB0E0FD01AE
:10378000E45CFB4F808180FF0BC0FD01EE57FB4FD7
:103790006081A058BB4F8C9190E070E00E94211195
:1037A00080913E05A82FB0E0FD01E25CFB4F8081D7
:1037B00082FF0BC0FD01EA55FB4F6081AC55BB4F4A
:1037C0008C9190E070E00E94641280913E05A82FD9
:1037D000B0E0FD01E25CFB4F808183FF0BC0FD0187
:1037E000E655FB4F6081A855BB4F8C9190E070E08F
:1037F0000E94841080913E05A82FB0E0FD01E25C9C
:10380000FB4F808184FF0BC0FD01E255FB4F6081BF
:10381000A455BB4F8C9190E070E00E94761180918E
:103820003E05A82FB0E0FD01E25CFB4F808186FFE2
:1038300029C0FD01EE54FB4F6081A055BB4F8C9118
:1038400090E070E00E94A9121DC080913E0480FFAC
:1038500019C06091A2048091A00490E070E00E94E1
:10386000C61410C00E9438180DC081ED94E00E946B
:10387000C60581E08093CF0285E090E06AE070E0C9
:103880000E94B3131F910F91FF90EF90089583E36F
:1038900096E06CE773E00E9448328093390583E339
:1038A00096E06EE773E00E9448328093380583E328
:1038B00096E060E873E00E94483280933A0583E323
:1038C00096E06EE873E00E9448328093710583E3CE
:1038D00096E06AE873E00E9448328093680583E3CB
:1038E00096E062EC70E00E944832813039F083E368
:1038F00096E062EC70E041E00E944F3283E396E094
:1039000064E873E00E9448328093820583E396E086
:1039100066E873E00E9448328093810583E396E075
:103920006CE873E00E94483210923D05882319F03C
:1039300081E080933D0583E396E062E973E00E94B5
:10394000483280933B0583E396E064E973E00E948C
:10395000483280933C050895CF93DF93EC0181EDCD
:1039600094E00E949D04C817D9073CF081ED94E0D3
:103970000E949204892B09F42397CE01DF91CF9105
:103980000895EF92FF920F931F93CF93DF930091CF
:103990003E0510E088EC90E0089F7001099FF00C54
:1039A000189FF00C1124C7010E949E08F801E85CE2
:1039B000FB4F882319F08081816002C080818E7F57
:1039C000808380913E05C82FD0E0C70102960E94F7
:1039D0009E08C05CDB4F888380913E05C82FD0E0F5
:1039E000C70104960E949E0890E00E94AC1CCE5B2A
:1039F000DB4F888300913E0510E0C70188569F4F3A
:103A00000E949E08F801E85CFB4F882319F0808132
:103A1000806102C080818F7E808380913E05C82FA7
:103A2000D0E0C70186569F4F0E949E08C45ADB4FC4
:103A3000888380913E05C82FD0E0C70184569F4FF0
:103A40000E949E0890E00E94AC1CC25ADB4F888303
:103A500000913E0510E0C70106960E949E08F801FD
:103A6000E85CFB4F882319F08081826002C080816E
:103A70008D7F808380913E05C82FD0E0C7010896D6
:103A80000E949E08CC5BDB4F888380913E05C82F47
:103A9000D0E0C7010A960E949E0890E00E94AC1CEC
:103AA000CA5BDB4F888300913E0510E0C7010C968E
:103AB0000E949E08F801E85CFB4F882319F0808182
:103AC000846002C080818B7F808380913E05C82FF7
:103AD000D0E0C7010E960E949E08C85BDB4F88832A
:103AE00080913E05C82FD0E0C70140960E949E08F5
:103AF00090E00E94AC1CC65BDB4F888300913E05C2
:103B000010E0C70142960E949E08F801E85CFB4F56
:103B1000882319F08081886002C08081877F80833C
:103B200080913E05C82FD0E0C70144960E949E08B0
:103B3000C45BDB4F888380913E05C82FD0E0C7016E
:103B400046960E949E0890E00E94AC1CC25BDB4F30
:103B5000888300913E0510E0C7014E960E949E08A2
:103B6000F801E85CFB4F882319F08081806202C075
:103B700080818F7D808380913E05C82FD0E0C70172
:103B800080960E949E08C05BDB4F888380913E0533
:103B9000C82FD0E0C70182960E949E0890E00E9444
:103BA000AC1CCE5ADB4F888300913E0510E0C70164
:103BB00084960E949E08F801E85CFB4F882319F068
:103BC0008081806402C080818F7B808380913E05EC
:103BD000C82FD0E0C70186960E949E08CC5ADB4FC2
:103BE000888380913E05C82FD0E0C70188960E9447
:103BF0009E0890E00E94AC1CCA5ADB4F888300915B
:103C00003E0510E0C7018A960E949E08F801E85C14
:103C1000FB4F882319F08081806802C080818F77F4
:103C2000808380913E05C82FD0E0C7018C960E940A
:103C30009E08C85ADB4F888380913E05C82FD0E08C
:103C4000C7018E960E949E0890E00E94AC1CC65A46
:103C5000DB4F888300913E0510E0C701C0960E94AB
:103C60009E08F801E65CFB4F882319F08081816093
:103C700002C080818E7F808380913E05C82FD0E076
:103C8000C701C2960E949E08C05ADB4F888380916C
:103C90003E05C82FD0E0C701C4960E949E0890E060
:103CA0000E94AC1CCE59DB4F888300913E0510E08A
:103CB000C701C6960E949E08F801E65CFB4F882368
:103CC00019F08081826002C080818D7F8083809125
:103CD0003E05C82FD0E0C701C8960E949E08CC5967
:103CE000DB4F888380913E05C82FD0E0C701CA967C
:103CF0000E949E0890E00E94AC1CCA59DB4F88834A
:103D000000913E0510E0C701CC960E949E08F80184
:103D1000E65CFB4F882319F08081846002C08081BB
:103D20008B7F808380913E05C82FD0E0C701CE965F
:103D30000E949E08C859DB4F888380913E05C82F9A
:103D4000D0E0C701805C9F4F0E949E0890E00E94D7
:103D5000AC1CC659DB4F888300913E0510E0C701BB
:103D6000885B9F4F0E949E08F801E65CFB4F88230A
:103D700019F08081806102C080818F7E8083809174
:103D80003E05C82FD0E0C701865B9F4F0E949E086A
:103D9000C059DB4F888380913E05C82FD0E0C70112
:103DA000845B9F4F0E949E0890E00E94AC1CCE58FE
:103DB000DB4F888300913E0510E0C7018E5B9F4F6B
:103DC0000E949E08F801E65CFB4F882319F0808171
:103DD000886002C08081877F808380913E05C82FE4
:103DE000D0E0C7018C5B9F4F0E949E08C459DB4FF7
:103DF000888380913E05C82FD0E0C7018A5B9F4F22
:103E00000E949E0890E00E94AC1CC259DB4F888340
:103E100000913E0510E0C701805B9F4F0E949E0805
:103E2000F801E65CFB4F882319F08081806202C0B4
:103E300080818F7D808380913E05C82FD0E0C701AF
:103E40008E5A9F4F0E949E08CC58DB4F88838091EA
:103E50003E05C82FD0E0C7018C5A9F4F0E949E0894
:103E600090E00E94AC1CCA58DB4F888300913E054D
:103E700010E0C7018A5A9F4F0E949E08F801E65C35
:103E8000FB4F882319F08081806402C080818F7B82
:103E9000808380913E05C82FD0E0C701885A9F4F8C
:103EA0000E949E08C858DB4F888380913E05C82F2A
:103EB000D0E0C701865A9F4F0E949E0890E00E9462
:103EC000AC1CC658DB4F888300913E0510E0C7014B
:103ED00082569F4F0E949E08F801E65CFB4F8823A4
:103EE00019F08081806802C080818F778083809103
:103EF0003E05C82FD0E0C70180569F4F0E949E0804
:103F0000C458DB4F888380913E05C82FD0E0C7019D
:103F10008E559F4F0E949E0890E00E94AC1CC25894
:103F2000DB4F888300913E0510E0C7018E599F4FFB
:103F30000E949E08F801E45CFB4F882319F0808101
:103F4000816002C080818E7F808380913E05C82F72
:103F5000D0E0C7018C599F4F0E949E08C058DB4F8C
:103F6000888380913E05C82FD0E0C7018A599F4FB2
:103F70000E949E0890E00E94AC1CCE57DB4F8883C5
:103F800000913E0510E0C70182599F4F0E949E0894
:103F9000F801E45CFB4F882319F08081846002C043
:103FA00080818B7F808380913E05C82FD0E0C70140
:103FB00080599F4F0E949E08CC57DB4F8883809189
:103FC0003E05C82FD0E0C7018E589F4F0E949E0823
:103FD00090E00E94AC1CCA57DB4F888300913E05DD
:103FE00010E0C70184579F4F0E949E08F801E45CCF
:103FF000FB4F882319F08081806802C080818F7711
:10400000808380913E05C82FD0E0C70182579F4F23
:104010000E949E08C857DB4F888380913E05C82FB9
:10402000D0E0C70180579F4F0E949E0890E00E94F9
:10403000AC1CC657DB4F888300913E0510E0C701DA
:104040008E569F4F0E949E08F801E45CFB4F882328
:1040500019F08081826002C080818D7F8083809191
:104060003E05C82FD0E0C7018C569F4F0E949E0886
:10407000C057DB4F888380913E05C82FD0E0C70131
:104080008A569F4F0E949E0890E00E94AC1CCE561C
:10409000DB4F888300913E0510E0C7018C589F4F8D
:1040A0000E949E08F801E45CFB4F882319F0808190
:1040B000886002C08081877F808380913E05C82F01
:1040C000D0E0C7018A589F4F0E949E08C457DB4F1B
:1040D000888380913E05C82FD0E0C70188589F4F44
:1040E0000E949E0890E00E94AC1CC257DB4F888360
:1040F00000913E0510E0C70186589F4F0E949E0820
:10410000F801E45CFB4F882319F08081806102C0D4
:1041100080818F7E808380913E05C82FD0E0C701CB
:1041200084589F4F0E949E08CC56DB4F8883809115
:104130003E05C82FD0E0C70182589F4F0E949E08BD
:1041400090E00E94AC1CCA56DB4F888300913E056C
:1041500010E0C70180589F4F0E949E08F801E45C60
:10416000FB4F882319F08081806202C080818F7D9F
:10417000808380913E05C82FD0E0C7018E579F4FA6
:104180000E949E08C856DB4F888380913E05C82F49
:10419000D0E0C7018C579F4F0E949E0890E00E947C
:1041A000AC1CC656DB4F888300913E0510E0C7016A
:1041B0008A579F4F0E949E08F801E45CFB4F8823BA
:1041C00019F08081806402C080818F7B8083809120
:1041D0003E05C82FD0E0C70188579F4F0E949E0818
:1041E000C456DB4F888380913E05C82FD0E0C701BD
:1041F00086579F4F0E949E0890E00E94AC1CC256BA
:10420000DB4F888300913E0510E0C7018C559F4F1E
:104210000E949E08F801E25CFB4F882319F0808120
:10422000816002C080818E7F808380913E05C82F8F
:10423000D0E0C7018A559F4F0E949E08C056DB4FB1
:10424000888380913E05C82FD0E0C70188559F4FD5
:104250000E949E0890E00E94AC1CCE55DB4F8883E4
:1042600000913E0510E0C70180559F4F0E949E08B7
:10427000F801E25CFB4F882319F08081846002C062
:1042800080818B7F808380913E05C82FD0E0C7015D
:104290008E549F4F0E949E08CC55DB4F888380919F
:1042A0003E05C82FD0E0C7018C549F4F0E949E0846
:1042B00090E00E94AC1CCA55DB4F888300913E05FC
:1042C00010E0C7018A549F4F0E949E08F801E25CEB
:1042D000FB4F882319F08081886002C08081877F2E
:1042E000808380913E05C82FD0E0C70188549F4F3E
:1042F0000E949E08C855DB4F888380913E05C82FD9
:10430000D0E0C70186549F4F0E949E0890E00E9413
:10431000AC1CC655DB4F888300913E0510E0C701F9
:1043200084549F4F0E949E08F801E25CFB4F882353
:1043300019F08081806102C080818F7E80838091AE
:104340003E05C82FD0E0C70182549F4F0E949E08AF
:10435000C455DB4F888380913E05C82FD0E0C7014C
:1043600080549F4F0E949E0890E00E94AC1CC25552
:10437000DB4F888300913E0510E082EC90E00E94C4
:104380009E08F801E25CFB4F882319F0808180626F
:1043900002C080818F7D808300913E0510E0C701BF
:1043A000845A9F4F0E949E08F801E25CFB4F8823CD
:1043B00019F08081806402C080818F7B808380912E
:1043C0003E05C82FD0E0C701825A9F4F0E949E0829
:1043D000C055DB4F888380913E05C82FD0E0C701D0
:1043E000805A9F4F0E949E0890E00E94AC1CCE54C1
:1043F000DB4F8883DF91CF911F910F91FF90EF905A
:1044000008958F929F92AF92BF92CF92DF92FF92C8
:104410000F931F93CF93DF93F62E4901C82EDD240F
:104420008601000F111F5801AC0CBD1CE501CC0F1B
:10443000DD1FCC0FDD1FC85FD94F18828B819C8197
:104440008430910509F48EC0853091055CF482308A
:10445000910509F443C0833091050CF0BFC0992346
:10446000C4F44FC28730910509F443C188309105E7
:1044700044F48530910509F4DEC0069709F041C285
:1044800007C18830910509F47AC1099709F039C24A
:10449000E7C18EEF681709F034C282E090E09C8398
:1044A0008B8380E790E0C89ED001C99EB00DD89E56
:1044B000B00D1124A856BA4F13961C92139788E397
:1044C00090E0C89EF001C99EF00DD89EF00D112419
:1044D000EE0FFF1FE656FA4F6083A4C1E5E6E6172C
:1044E00088F489818F5F8983F501EE0FFF1FEE0F3E
:1044F000FF1FE65FF94F80818F5F8083188281E024
:1045000090E02DC080E790E0C89EF001C99EF00DBC
:10451000D89EF00D1124E856FA4F63831D828081E6
:104520008627282F2295207F282730E0522F4427E6
:10453000C90163E0880F991F6A95E1F74827592759
:10454000818190E04827592784E0359527958A9501
:10455000E1F7422753275183408384E090E09C8316
:104560008B83CFC18CE190E0C89EF001C99EF00D15
:10457000D89EF00D1124EE0FFF1FEE0FFF1FE45623
:10458000FA4F608380E790E0C89EF001C99EF00D6D
:10459000D89EF00D1124E856FA4F80818627282FE7
:1045A0002295207F282730E0522F4427C901B3E00D
:1045B000880F991FBA95E1F748275927818190E024
:1045C00048275927A4E035952795AA95E1F7422772
:1045D00053275183408383E090E0C1CF80E790E090
:1045E000C89EF001C99EF00DD89EF00D1124E8562A
:1045F000FA4F658380818627282F2295207F2827E0
:1046000030E0522F4427C90163E0880F991F6A9553
:10461000E1F748275927818190E04827592704E08E
:10462000359527950A95E1F7422753275183408313
:1046300085E090E094CF80E790E0C89EF001C99EAD
:10464000F00DD89EF00D1124E856FA4F6683808154
:104650008627282F2295207F282730E0522F4427B5
:10466000C901B3E0880F991FBA95E1F74827592788
:10467000818190E048275927A4E035952795AA9590
:10468000E1F7422753275183408386E090E067CFCC
:1046900080E790E0C89EF001C99EF00DD89EF00D15
:1046A0001124E856FA4F678380818627282F2295A8
:1046B000207F282730E0522F4427C90163E0880F6C
:1046C000991F6A95E1F748275927818190E048278B
:1046D000592794E0359527959A95E1F74227532776
:1046E000518340838381882309F446C087E090E0AA
:1046F00036CF6D81F80183E0EE0FFF1F8A95E1F759
:10470000E01BF10B319603E0EE0FFF1F0A95E1F776
:10471000E60FF11DE856FA4FF0826F5F6D8380E778
:1047200090E0C89EF001C99EF00DD89EF00D1124B6
:10473000E856FA4F80818F25282F2295207F282741
:1047400030E0522F4427C901B3E0880F991FBA9572
:10475000E1F748275927818190E048275927A4E0AD
:1047600035952795AA95E1F7422753275183408332
:104770008381681709F0C5C088E090E0F0CE80E73B
:1047800090E0C89ED001C99EB00DD89EB00D1124F6
:10479000A856BA4F9C911796EC911797F0E0E85104
:1047A000FD4F80818927482F4295407F482750E060
:1047B000342F2227CA01E3E0880F991FEA95E1F719
:1047C0002827392711968C91119790E028273927AF
:1047D00074E0559547957A95E1F72427352711968A
:1047E0003C932E93862F90E0307082179307F9F058
:1047F000F501EE0FFF1FEE0FFF1FE65FF94F8081FF
:104800008F5F8083188281E090E09C838B83FEEF32
:10481000FF1609F076C082E090E09C838B831396AC
:104820001C9213978FEF9FEF8D939C936AC089E042
:1048300090E09C838B83F80153E0EE0FFF1F5A95A5
:10484000E1F7E01BF10B319643E0EE0FFF1F4A95B5
:10485000E1F78D81E80FF11DE856FA4F608351C0F2
:10486000262F30E080E790E0C89EB001C99E700D11
:10487000D89E700D112468567A4FFB01818190E01B
:1048800028173907E9F0F501EE0FFF1FEE0FFF1FA4
:10489000E65FF94F80818F5F8083188281E090E02E
:1048A0009C838B83FEEFFF1661F582E090E09C8392
:1048B0008B83EB011B828FEF9FEF9983888321C04D
:1048C00081E0888381E090E09C838B83F80123E082
:1048D000EE0FFF1F2A95E1F7E01BF10B319693E0F5
:1048E000EE0FFF1F9A95E1F78D81E80FF11DE75656
:1048F000FA4FF082DA01FB0180E701900D928150BE
:10490000E1F7D601AA0FBB1FAC0DBD1DAA0FBB1F3F
:10491000AA0FBB1FA85FB94F8C91813069F58CE15C
:1049200090E0C89EF001C99EF00DD89EF00D1124B4
:10493000EE0FFF1FEE0FFF1FE456FA4F8081169611
:104940008C93169718968D919C911997892B21F429
:104950001B961C921E921A97F601EE0FFF1FEC0D8C
:10496000FD1DEE0FFF1FEE0FFF1FE85FF94F808563
:104970009185019691878087F601EE0FFF1FEC0D60
:10498000FD1DEE0FFF1FEE0FFF1FDF01A85FB94FE8
:1049900016968C9116978F5FE4018E8318968D91F1
:1049A0009C91199799878887E65FF94F80818A875C
:1049B0001B8610828C91DF91CF911F910F91FF90F8
:1049C000DF90CF90BF90AF909F908F9008954F92BF
:1049D0005F927F928F929F92AF92BF92CF92DF921F
:1049E000EF92FF920F931F93DF93CF93CDB7DEB774
:1049F000C854D0400FB6F894DEBF0FBECDBF01ED56
:104A000014E0C8010E94C605C80166E049E00E94A2
:104A1000A104C8010E94790500D000D0EDB7FEB70F
:104A20001283018387E092E0948383830E94862B24
:104A30000F900F900F900F90C8010E945D0500D05D
:104A400000D004EB14E0EDB7FEB71283018387EFCB
:104A500091E0948383830E94862B3CEE432E31E0C9
:104A6000532EEE24FF24CC24DD240F900F900F90C2
:104A70000F90702E012F29E0A22EB12CAC0EBD1E7E
:104A80004E010894811C911C84EB94E00E943A2C06
:104A9000982F8D3031F08D30DCF180538230C0F5AD
:104AA00030C01830A1F59981892F8053823078F574
:104AB000913311F490E801C090E08A81813309F4C8
:104AC000905C8B81813309F4905E8C81813309F491
:104AD000905F8D81813309F4985F8E81813309F471
:104AE0009C5F8F81813309F49E5F8885813309F44F
:104AF0009F5FF501EE0DFF1D90830894E11CF11CF2
:104B000006C0F401E10FF11D90831F5F01C010E0AA
:104B1000F0E4EF16F104C9F481ED94E0B601A501CB
:104B20000E94B1040894C11CD11C00D000D0EDB784
:104B3000FEB771820283548243820E94862BEE2448
:104B4000FF240F900F900F900F90FFEFCF16D1041E
:104B500009F00CF499CFC85BDF4F0FB6F894DEBFB5
:104B60000FBECDBFCF91DF911F910F91FF90EF90BE
:104B7000DF90CF90BF90AF909F908F907F905F908D
:104B80004F900895AF92BF92CF92DF92EF92FF9233
:104B90000F931F93DF93CF93CDB7DEB7CC57D040A1
:104BA0000FB6F894DEBF0FBECDBF4DE0E42EF12C62
:104BB000EC0EFD1E5E010894A11CB11CCC24C39414
:104BC0008E010B5E1F4F01C284EB94E00E943A2CD1
:104BD000D82E80918805882311F50E9430336052C9
:104BE0007E4480409040D8F40E943033695873412D
:104BF00080409040A0F0FAE0DF1619F02DE0D216C8
:104C000031F4809189058F5F8093890502C01092ED
:104C1000890580918905833011F40E94E72480E0A2
:104C20006D2DA70195010E940122882309F4C9C1B5
:104C3000C09288058C89833209F471C1843260F492
:104C4000813009F449C08130B8F0883109F464C07A
:104C50008E3109F0B6C1DDC08E3309F408C18F333F
:104C600020F48A3209F0ADC155C18A3409F486C0F6
:104C7000883A09F0A6C17FC1C0920B058A8980934A
:104C80008A058B8980938B05F80184818093FE04CB
:104C9000F70180858093FF04F801868180938C055D
:104CA0008823880F880B8C2180933F0510928D05F7
:104CB0000E9430330E940F36609383057093840501
:104CC00080938505909386058091CF02813009F00D
:104CD00078C180938E0575C1F7016689778980E078
:104CE00090E00E940F3620E030E04AE754E40E9452
:104CF0007635609322057093230580932405909365
:104D00002505F701808D918D909351058093500575
:104D100086A180932A0555C1F7016089718982892E
:104D200093890E94113620E836E948E15BE40E944D
:104D30007635609318057093190580931A05909342
:104D40001B05F70164897589868997890E94113648
:104D500020E836E948E15BE40E94763560931C0563
:104D600070931D0580931E0590931F05F801848D97
:104D700080932105858D8093200523C1F8018081D2
:104D80009181A281B3818093C0029093C102A093CC
:104D9000C202B093C30284819581A681B7818093BA
:104DA000400590934105A0934205B0934305F70158
:104DB000608D718D882777FD8095982F0E94113620
:104DC0006093060570930705809308059093090585
:104DD000F701828D938D90932C0580932B0580890C
:104DE0009189A289B3898093440590934505A09346
:104DF0004605B0934705F80184859585A685B78556
:104E000080934C0590934D05A0934E05B0934F05AC
:104E1000D8C0F701608971898289938921EE3EE2C9
:104E200045E652E40E9444370E94DE356093F80460
:104E3000F801648175818681978121EE3EE245E625
:104E400052E40E9444370E94DE356093F904F80171
:104E5000648575858685978521EE3EE245E652E4B8
:104E60000E9444370E94DE3560938F05AAC0F80186
:104E700080819181A281B3818093520590935305E3
:104E8000A0935405B093550584819581A681B7817F
:104E90008093560590935705A0935805B0935905F4
:104EA0008489958990935B0580935A0586899789B3
:104EB0009093050580930405F70180A191A190933B
:104EC00003058093020580899189A289B389809323
:104ED0005C0590935D05A0935E05B0935F05F801B6
:104EE00084859585A685B78580936405909365052F
:104EF000A0936605B0936705F701808D918DA28D13
:104F0000B38D8093600590936105A0936205B09383
:104F1000630557C0F70180858093010552C0F801F1
:104F20008481958190937905809378058681978116
:104F300090937F0580937E05848595859093C80224
:104F40008093C702868597859093CA028093C90291
:104F5000F701808D918D9093CC028093CB02F80164
:104F6000828993899093CE028093CD02F701858D3B
:104F70008093800526C0F80180819181A281B38150
:104F80008093730590937405A0937505B09376058F
:104F900084819581A681B7818093FA049093FB0464
:104FA000A093FC04B093FD04F70180899189A28944
:104FB000B3898093900590939105A0939205B09347
:104FC00093058AE890E00E94973384EB94E00E9476
:104FD0000A2C181619060CF4F7CD809194059091BF
:104FE00095052B853C85820F931F909395058093A3
:104FF00094052B818091960590919705820F911DC4
:105000009093970580939605C458DF4F0FB6F89498
:10501000DEBF0FBECDBFCF91DF911F910F91FF90EB
:10502000EF90DF90CF90BF90AF9008952F923F9276
:105030004F925F926F927F928F929F92AF92BF92A8
:10504000CF92DF92EF92FF921F93CF93DF9385E091
:1050500090E06CE070E00E946E1364EF71E080E01D
:1050600090E00E943E33AFE32A2EA2E03A2EF7E30F
:105070004F2EF2E05F2EEFE26E2EE2E07E2E77E220
:10508000872E72E0972E6FE1A62E62E0B62E56E1D3
:10509000C52E52E0D52EEE24FF2410E0C1EDD4E061
:1050A000C7016AEF70E00E946A38892B09F091C04D
:1050B0001F5F81ED94E061E14CE00E94A10481ED6D
:1050C00094E00E947905143009F444C0153050F47E
:1050D000113019F11130C0F0123051F1133009F0D4
:1050E00074C02FC0173009F450C0183030F4153098
:1050F000D1F1163009F069C03FC0183009F44EC034
:10510000193009F062C053C000D000D0EDB7FEB72F
:10511000D283C1838FE592E008C000D000D0EDB704
:10512000FEB7D283C18387E592E09483838347C02F
:1051300000D000D0EDB7FEB7D283C1838FE492E0F8
:10514000F4CF00D000D0EDB7FEB7D283C18387E49F
:1051500092E0EBCF00D000D0EDB7FEB7D283C18391
:10516000348223822CC000D000D0EDB7FEB7D283AA
:10517000C1835482438223C000D000D0EDB7FEB774
:10518000D283C183748263821AC000D000D0EDB78D
:10519000FEB7D283C1839482838211C000D000D035
:1051A000EDB7FEB7D283C183B482A38208C000D01A
:1051B00000D0EDB7FEB7D283C183D482C3820E94F0
:1051C000862B0F900F900F900F9081ED94E00E942E
:1051D0005D0561E070E080E090E00E943E3308945D
:1051E000E11CF11CF1EDEF16F7E0FF0609F058CFD6
:1051F000DF91CF911F91FF90EF90DF90CF90BF9004
:10520000AF909F908F907F906F905F904F903F9066
:105210002F90089586E061E00E941B3408950F935B
:105220001F9380918E05813009F051C001ED14E08B
:10523000C8010E94C605C80163E04AE00E94A104BB
:10524000C8010E94790500D000D0EDB7FEB71283E7
:10525000018387E692E0948383830E94862B0F90DC
:105260000F900F900F90C8010E945D050E942707C4
:1052700062E370E080E090E00E943E330E942707E6
:1052800062E370E080E090E00E943E330E942707D6
:1052900062E370E080E090E00E943E3310928E0561
:1052A00060ED77E080E090E00E943E33C8010E940C
:1052B000C6051092CF020E9430330E940F366093D1
:1052C00083057093840580938505909386050E94DD
:1052D000C22583EE94E00E94A9321F910F91089598
:1052E0000F931F93CF93DF9386E061E00E94DC333E
:1052F00004EB14E0C80140E051EE60E070E00E9471
:10530000A82B10933506009334060E940A29C1ED9C
:10531000D4E0CE010E94FF050E94021864EF71E004
:1053200080E090E00E943E3382EF93E00E949E086E
:105330008C34E1F0CE0163E049E00E94A104CE018B
:105340000E94790500D000D0EDB7FEB7D283C183AB
:1053500081E892E0948383830E94862B0F900F90C4
:105360000F900F90CE010E945D05FFCF0E94471C59
:1053700010923E0507C00E94C11C80913E058F5FC0
:1053800080933E0580913E058230A8F310923E0541
:105390000E94162883EE94E069E57BE228E730E07E
:1053A00040E050E000E00E945B3281ED94E00E941A
:1053B000C60583EE94E00E94C132DF91CF911F9128
:1053C0000F9108952F923F924F925F926F927F922A
:1053D0008F929F92AF92BF92CF92DF92EF92FF9205
:1053E0000F931F93DF93CF9300D000D0CDB7DEB7DC
:1053F00080918705882349F580912105823008F442
:1054000041C18091180590911905A0911A05B0919C
:105410001B058093140690931506A0931606B0936F
:10542000170680911C0590911D05A0911E05B09155
:105430001F058093180690931906A0931A06B0933F
:105440001B0681E0809387051DC1813009F01AC1D8
:10545000A0901C0688E18A15B0F1E0904405F09018
:105460004505009146051091470560911D06709114
:105470001E0680911F0690912006A80197010E94A8
:10548000A8349F7720E030E040E05FE30E943937A6
:1054900018165CF410921C06E0921D06F0921E068F
:1054A00000931F06109320060EC08A2D8F5F8093F5
:1054B0001C06893141F4E0924805F09249050093B9
:1054C0004A0510934B05E0901406F09015060091E4
:1054D000160610911706C801B7019F7725E33AEF2A
:1054E0004EE85CE30E9444370E94733569837A83F7
:1054F0008B839C83C801B701209118053091190551
:1055000040911A0550911B050E94A8341B012C01E3
:105510009F7720EC3BE649ED57E40E9444375B015E
:105520006C01609118067091190680911A0690918D
:105530001B0620911C0530911D0540911E055091C0
:105540001F050E94A8343B014C019F7720EC3BE6ED
:1055500049ED57E40E94443729813A814B815C81AF
:105560000E9444377B018C01C601B501A60195015B
:105570000E9444375B016C01C801B701A801970183
:105580000E9444379B01AC01C601B5010E94A934B9
:105590000E94CB370E94DE35609326057093270565
:1055A000809328059093290560E070E080E89FE3F0
:1055B00029813A814B815C810E9476359B01AC0147
:1055C000C201B1010E94443797FA909497F89094E1
:1055D000A40193010E941C3520EE3EE245E652E410
:1055E0000E94443720E030E044EB52E40E94A934AA
:1055F0000E94DE359B01AC0197FF04C028593E4F45
:105600004F4F5F4FCA01B901645B704080409040CA
:1056100097FF06C0CA01B9016C547F4F8F4F9F4F4F
:105620000E9411362091060530910705409108052A
:10563000509109050E94A8340E94DE3597FF04C0EE
:1056400068597E4F8F4F9F4F0E94113620E030E007
:1056500044EB53E40E94763520E030E040E851E42A
:105660000E9444370E94A73720E030E040E85FE323
:105670000E94A9340E94E33560930005613110F067
:10568000109200050F900F900F900F90CF91DF9127
:105690001F910F91FF90EF90DF90CF90BF90AF9050
:1056A0009F908F907F906F905F904F903F902F9042
:1056B00008950E94FD0A81ED94E00E94E2290E9473
:1056C000901908956EBD0DB407FEFDCF8EB50895F7
:1056D0008DE061E00E94DC338BE061E00E94DC330E
:1056E0008CE060E00E94DC338AE061E00E94DC3301
:1056F0001CBC80E58CBD8DB58EB5089581E296E029
:105700000E94682B08958FEF9FE70895DF93CF9352
:10571000CDB7DEB7FE0139968D819E8161E04F8164
:1057200058859F010E94272ECF91DF910895DF9326
:10573000CF93CDB7DEB7FE0139968D819E8160E0B3
:105740004F8158859F010E94272ECF91DF910895A8
:105750000F931F93DC01ED91FC910288F389E02DFA
:1057600020E030E000E010E009951F910F910895CE
:105770008F92AF92CF92EF92FF920F931F93DF938E
:10578000CF93CDB7DEB7FC011382128288EE93E08F
:10579000A0E0B0E084839583A683B78382E294E09F
:1057A000918380835587448737872687118B008BA9
:1057B000F38AE28AC48AA58A868A70E0CB0123E054
:1057C000880F991F2A95E1F79C012E5D394F308F84
:1057D000278B865D994F928F818F81E090E002C088
:1057E000880F991F6A95E2F720913206282B2093A3
:1057F0003206CF0140E051EE60E070E00E94A82B3D
:10580000CF91DF911F910F91FF90EF90CF90AF90CC
:105810008F900895FC01838D882319F42FEF3FEFBB
:105820000DC00788F08DE02D208131818281938128
:10583000281B390B8481958128233923C9010895B8
:10584000FC01838D882319F42FEF3FEF11C0018CE9
:10585000F28DE02D2081318182819381281B390BCB
:105860002095309584819581282339232F5F3F4FE0
:10587000C9010895FC01838D882361F0A789B08D4B
:105880002D913C91119712968D919C911397281709
:10589000390721F44FEF5FEFCA01089512968D91F9
:1058A0009C9113971696ED91FC911797E80FF91FAD
:1058B000408112968D919C911397019614962D918B
:1058C0003C9115978223932313969C938E93129762
:1058D00050E0E2CFFC01838D882351F00788F08DE2
:1058E000E02D20813181828193812817390721F4AD
:1058F0002FEF3FEFC9010895828193810680F781E0
:10590000E02DE80FF91F8081282F30E0F3CFDC0174
:105910005796ED91FC915897828193819183808372
:105920005996ED91FC915A9780819181938382835E
:105930000895DC015B968C915B978823A9F15996B9
:10594000ED91FC915A97208131812F5F3F4F8481E7
:105950009581282339235C968C915C97882329F0C4
:105960008281938128173907F9F082819381281762
:105970003907D9F3808191810680F781E02DE80F06
:10598000F91F60835996ED91FC915A9731832083DA
:105990005296ED91FC915397808156969C91892B5C
:1059A000808321E030E002C020E030E0C9010895AA
:1059B000CF93DF93EC011B821A828A819B819983AA
:1059C00088831D821C828E819F81009721F00E9416
:1059D00014041F821E82DF91CF9108950F931F93AD
:1059E0008C01DC015296ED91FC91539720815696E3
:1059F0008C91569755969C915597892B809582232B
:105A0000808357968D919C9158970E94D82CF801CD
:105A1000818D928D0E94D82CD8015B961C921F918B
:105A20000F9108950F931F93CF93DF938C01FC0187
:105A300013821282828193819183808341E0A1E06D
:105A4000B0E001C04F5FFD01042E02C0EE0FFF1F4A
:105A50000A94E2F79B0182E06130780710F020E0C1
:105A600032E0E217F30770F3C1E0D0E002C0CC0FE0
:105A7000DD1F4A95E2F72197F8012681378121152C
:105A8000310541F0848195818C179D0789F0C9010A
:105A90000E941404F801D583C483CE0101960E94AC
:105AA0006A039C01F8019783868380E0232B09F029
:105AB00081E0DF91CF911F910F910895AF92BF9236
:105AC000CF92DF92EF92FF920F931F93CF93DF93CA
:105AD0007C015A016B01E901DC015B968C915B97BB
